:020000040800F2
:100000000000022001050008C5040008C70400081C
:10001000C9040008CB040008CD040008000000005B
:10002000000000000000000000000000CF040008F5
:10003000D104000800000000D3040008D504000823
:100040005105000851050008510500085105000838
:100050005105000851050008510500085105000828
:100060005105000851050008510500085105000818
:100070005105000851050008510500085105000808
:1000800051050008510500085105000851050008F8
:1000900051050008510500085105000851050008E8
:1000A00051050008510500085105000851050008D8
:1000B00051050008510500085105000851050008C8
:1000C00051050008510500085105000851050008B8
:1000D00051050008510500085105000851050008A8
:1000E0005105000851050008510500085105000898
:1000F0005105000851050008510500085105000888
:100100005105000851050008510500085105000877
:100110005105000851050008510500085105000867
:100120005105000851050008510500085105000857
:100130005105000800000000000000005105000803
:100140005105000851050008510500085105000837
:100150005105000851050008510500085105000827
:100160005105000851050008510500085105000817
:1001700051050008510500080000000000000000C3
:080180005105000851050008BB
:1001880010B5054C237833B9044B13B10448AFF3C9
:1001980000800123237010BD04000020000000002F
:1001A800AC05000808B5034B1BB103490348AFF37E
:1001B800008008BD0000000008000020AC05000811
:1001C8002DE9F04F02460D6895FAA5F44FF0010CA1
:1001D800B4FA84F403264FF00F0E35FA04F001D177
:1001E800BDE8F08F0CFA04F32B406DD04868471E29
:1001F800012F1ED8976893FAA3F8B8FA88F893FAEB
:10020800A3F94FEA480806FA08F827EA0808B9FAED
:1002180089F98F684FEA490907FA09F748EA070791
:100228009760576827EA0308CF685F4348EA0707DB
:100238005760D76893FAA3F8B8FA88F893FAA3F93D
:100248004FEA480806FA08F827EA0808B9FA89F9C7
:100258000F694FEA490907FA09F748EA0707022828
:10026800D7601DD193FAA3F7B7FA87F7072FD1F80C
:1002780014A02BDC176A93FAA3F9B9FA89F993FA4F
:10028800A3F8B8FA88F84FEA89090EFA09F94FEA8B
:10029800880827EA09070AFA08FA47EA0A071762E4
:1002A800D2F8008093FAA3F7B7FA87F793FAA3F383
:1002B800B3FA83F37F0006FA07F75B0028EA07071B
:1002C80000FA03F33B431360013486E7D2F824B005
:1002D8001F0A97FAA7F8B8FA88F897FAA7F7B7FAAB
:1002E80087F74FEA88080EFA08F8BF002BEA080BD0
:1002F8000AFA07F74BEA07075762D1E74FF47A7310
:10030800B0FBF3F0034B0022013858609A600522D5
:100318001A60704710E000E0014B1860704700BF9A
:1003280000000020024A136843F00203136070477C
:1003380010E000E0064A13889BB2632B06D900231D
:100348001380044A536983F480735361704700BF74
:100358002000002000040240054B1A6B02431A6378
:100368001B6B82B018400190019B02B0704700BF20
:1003780000380240264A08B5136823F00F0343F0FB
:10038800050313601368A2F5E632136843F480434B
:100398001360204B1A6842F480321A601A6891037D
:1003A800FCD55A681C4911401C4A0A435A605A68CD
:1003B80022F440325A601A6842F080721A60154B73
:1003C8001A689201FCD59A6822F0F0029A609A683D
:1003D80022F4E05242F4A0529A609A6822F46042F1
:1003E80042F400429A609A6822F0030242F0020244
:1003F8009A60084A936803F00C03082BFAD108485E
:10040800FFF77CFF0648BDE80840FFF785BF00BF3F
:10041800003C0240003802400080BFFF082A40002C
:1004280000BD0105214B22495A6C00B542F48042B7
:100438005A645A6C89B002F480420192019A1A6C8B
:1004480042F080521A641B6C03F080530093009BA7
:10045800CA68184B22F4E0621204120C1343CB60F2
:10046800FFF788FF1822002102A800F093F88020E7
:10047800FFF772FF0120FFF76FFF0220FFF76CFF05
:100488000D484FF0807383614FF48073029301230A
:10049800039302A90023049305930693FFF790FEA4
:1004A800FFF740FFFFF746FFFCE700BF00380240B8
:1004B80000ED00E00003FA05000402407047FEE783
:1004C800FEE7FEE7FEE7704770477047024A138869
:1004D80001339BB21380704720000020054BD3F8EE
:1004E800882042F47002C3F888204FF000629A60B6
:1004F800704700BF00ED00E0DFF834D0002103E0D2
:100508000C4B5B58435004310B480C4B42189A4231
:10051800F6D30B4A02E0002342F8043B094B9A4207
:10052800F9D3FFF7DBFF00F011F8FFF77BFF704707
:1005380000000220CC050008000000200400002074
:100548000400002030000020FEE7000070B50D4ECA
:100558000D4CA41BA4100025A54209D10B4E0C4C30
:1005680000F020F8A41BA4100025A54205D170BDF9
:1005780056F8253098470135EEE756F82530984764
:100588000135F2E7C4050008C4050008C4050008E1
:10059800C805000802440346934200D1704703F897
:1005A800011BF9E7F8B500BFF8BC08BC9E467047C8
:0C05B800F8B500BFF8BC08BC9E467047B8
:0405C400AD0100087D
:0405C800890100089D
:0405CC000024F40013
:0400000508000501E9
:00000001FF
