:020000040800F2
:1000000000000220552B00085D2600085F2600082E
:10001000612600086326000865260008000000002D
:10002000000000000000000000000000672600083B
:1000300069260008000000006B2600086D260008F5
:10004000A52B0008A52B0008A52B0008A52B000850
:10005000A52B0008A52B0008A52B0008A52B000840
:10006000A52B0008A52B0008A52B0008A52B000830
:10007000A52B0008A52B0008A52B0008A52B000820
:10008000A52B0008A52B0008A52B0008A52B000810
:10009000A52B0008A52B0008A52B0008A52B000800
:1000A000A52B0008A52B0008A52B0008A52B0008F0
:1000B000A52B0008A52B0008A52B0008A52B0008E0
:1000C000A52B0008A52B0008A52B0008A52B0008D0
:1000D000A52B0008A52B0008A52B0008A52B0008C0
:1000E000A52B0008A52B0008A52B0008A52B0008B0
:1000F000A52B0008A52B0008A52B0008A52B0008A0
:10010000A52B0008A52B0008A52B0008A52B00088F
:10011000A52B0008A52B0008A52B0008A52B00087F
:10012000A52B0008A52B0008A52B0008A52B00086F
:10013000A52B00080000000000000000A52B00080F
:10014000A52B0008A52B0008A52B00088126000878
:10015000A52B0008A52B0008A52B0008A52B00083F
:10016000A52B0008A52B0008A52B0008A52B00082F
:10017000A52B0008A52B00080000000000000000CF
:08018000A52B0008A52B0008C7
:1001880010B5054C237833B9044B13B10448AFF3C9
:1001980000800123237010BDF00100200000000042
:1001A800A82D000808B5034B1BB103490348AFF35A
:1001B800008008BD00000000F4010020A82D000800
:1001C800034613F8012B002AFBD1181A013870478F
:1001D80038B50E4A0E4B054618784FF47A73B3FBC0
:1001E800F0F31068B0FBF3F000F0AAF8044658B931
:1001F8000F2D09D8024629464FF0FF3000F05EF86F
:10020800044B20461D6038BD012038BD2401002064
:10021800000000200400002008B50B4B1A6842F4C7
:1002280000721A601A6842F480621A601A6842F40E
:1002380080721A60032000F02FF80020FFF7C8FF33
:1002480002F0ECF9002008BD003C0240034A044BD0
:1002580011681B780B441360704700BF1C02002014
:1002680000000020014B1868704700BF1C020020E6
:1002780038B50446FFF7F6FF631C1CBF054B1B7817
:10028800054618BFE418FFF7EDFF401B8442FAD873
:1002980038BD00BF00000020074AD36823F4E0639C
:1002A8001B041B0C43F0BF63000243F4003300F44B
:1002B800E0600343D360704700ED00E0174B30B5B2
:1002C800DC68C4F30224C4F10703251D042B28BFEE
:1002D8000423062D4FF0010505FA03F303F1FF335C
:1002E8008CBF033C00241940A14005FA04F4013CEA
:1002F8002240002842EA01024FEA0212ADBF00F193
:10030800604000F00F00064B00F56140B5BFD2B267
:10031800D2B21A5480F8002330BD00BF00ED00E0CF
:1003280014ED00E0002808DB4209012300F01F005B
:1003380003FA00F0014B43F82200704700E100E0A7
:100348000138B0F1807F0AD2064B074A5860F02185
:1003580082F823100020072298601A607047012055
:10036800704700BF10E000E000ED00E02DE9F04F1D
:1003780085B00B68DFF8AC81684ADFF8AC9101936F
:1003880000230124019D9C402540AC4240F0B080F0
:100398004C6824F0100C0CF1FF36012E4FEA430E86
:1003A80012D88768032606FA0EF627EA0607CE68EB
:1003B80006FA0EF63E4386604768C4F3001627EA3D
:1003C80005079E403E4346600326C76806FA0EF6B8
:1003D800F64307EA060A8F6807FA0EF747EA0A079C
:1003E800BCF1020FC76016D14FEAD30A00EB8A0AA4
:1003F80003F0070BDAF820704FEA8B0B4FF00F0C65
:100408000CFA0BFC27EA0C0C0F6907FA0BF747EA02
:100418000C07CAF8207007683E4004F0030707FA83
:100428000EFE4EEA06060660E60061D54FF0000BA8
:10043800CDF80CB0D8F84470394E47F48047C8F866
:100448004470D8F8447007F480470397039F23F05B
:10045800030707F1804707F59C3703F0030CD7F82B
:1004680008A04FEA8C0C4FF00F0E0EFA0CFEB042AB
:100478002AEA0E0E43D006F58066B04241D006F552
:100488008066B0423FD006F58066B0423DD006F5A2
:100498008066B0423BD048453BD006F50066B04286
:1004A80039D006F58066B04214BF0826072606FA3A
:1004B8000CF646EA0E06BE601668EF4314F4803F59
:1004C8000CBF3E402E431660566814F4003F0CBF24
:1004D8003E402E435660966814F4801F0CBF3E4081
:1004E8002E439660D668A40254BF3E402E43D66081
:1004F8000133102B7FF445AF05B0BDE8F08F5E46A1
:10050800D5E70126D3E70226D1E70326CFE704265D
:10051800CDE70526CBE70626C9E700BF003C01402A
:10052800000002400038024000140240F0B50446C2
:100538008BB060B390F8BD33056803F0FF021BB9B8
:1005480080F8BC2302F036F9032384F8BD33EB6B43
:10055800254613F4807355F8100B08BF236100F08B
:10056800F9FD0FCD6E460FC60FCD0FC695E80300F7
:1005780086E803002546271D97E80E0055F8100B5E
:1005880000F02EFD064620B1022384F8BD33012574
:1005980050E00146206800F0E3FD3046D4F804E05E
:1005A8001C264FF0010C0146C2B2964500F101002D
:1005B8001CD800231C261946D8B2864503F101032E
:1005C80022D80FCD6E460FC60FCD0FC695E8030093
:1005D80086E8030097E80E00206800F003FE012378
:1005E800054600B3022284F8BD23D0E706FB024388
:1005F80083F83DC083F83C20A3F8422083F83F10DD
:10060800596499641965CFE706FB004282F8FD1129
:1006180082F8FC0182F8FF11C2F80412C2F808122D
:10062800C2F81012C8E784F8380084F8BD3320688F
:1006380001F042F928460BB0F0BD90F8BC33012B0D
:1006480010B5044616D00123006884F8BC33A36AA9
:10065800012B06D1A369012B1EBF836B43F48033A2
:10066800836301F01DF9206800F06EFD002084F816
:10067800BC0310BD022010BD2DE9F04FD0F800A03A
:1006880087B00446504601F052F90290002840F025
:100698002381206801F01CF9002800F01D812068E2
:1006A80001F016F9870748BF2268206842BF5369DE
:1006B80003F00203536101F00BF9C6062BD522683B
:1006C800936923F010039361DAF82050C5F343438C
:1006D800022B05F00F0740F0028147F6F0731D4228
:1006E80014D01C2606FB0746C5F30A152A46D6F879
:1006F8000812504601F05EF8D6F808322B44C6F8C6
:100708000832D6F814321D44C6F814522268936988
:1007180043F010039361206801F0DAF8050300F153
:10072800ED80206801F0D4F840030CD5206801F072
:10073800DBF8254603900AF510694FF00008039B83
:10074800002B40F07F81206801F0C2F8002815DAFC
:10075800DAF8043823F00103CAF8043894F8F433BB
:10076800012B40F00082002184F8F413204600F0A9
:1007780079FB2268536903F000435361206801F054
:10078800A7F801050BD5DAF80838DA0702D52046AC
:1007980002F080F82268536903F40063536120680B
:1007A80001F096F8C30435D50AF500656B68206832
:1007B80023F001036B60102100F0EAFC60680AF581
:1007C80010634FF67F31029A824240F0D081EB6984
:1007D80043F00113EB61236B002B00F0E481D5F8A3
:1007E800843043F00B03C5F884306B6C43F00B0383
:1007F8006B64DAF80038217C206823F4FE63CAF8B9
:10080800003804F5717201F0A7F82268536903F4FF
:1008180080535361206801F05BF8870416D520687F
:1008280001F089F8206800F097FDE060256800F085
:100838001BFB227B0146284600F012FC204602F0F2
:1008480016F82268536903F400535361206801F0D5
:100858003FF8060707D5204602F005F822685369D5
:1008680003F008035361206801F032F8C50208D587
:100878000021204602F02EF82268536903F4801301
:100888005361206801F024F8800208D50021204631
:1008980002F01CF82268536903F4001353612068BE
:1008A80001F016F8410007D5204602F017F8226833
:1008B800536903F080435361206801F009F8420747
:1008C8000AD523685D686B0702D5204602F00AF84E
:1008D80023685A6815435D6007B0BDE8F08F062BA2
:1008E8007FF414AF082204F5717150461C2600F0FD
:1008F80061FF06FB0746C5F30A1502E7206800F00A
:10090800EBFF0AF53066814627460025B9F1000F4E
:100918003FF407AF19F0010F57D05FFA85FB59462E
:10092800206800F0E9FF10F0010F80461AD0206817
:1009380021690123B36000F5306303EB45130129F6
:10094800D0F840E09A6865D1110707D59B498E45D4
:1009580008D9100406D54FF4004202E091063AD5B2
:1009680020229A6018F0080F1FD00823B36023686C
:100978009249D3F840B003F5306303EB45138B4538
:100988009A6804D9120444BF4FF400429A60204682
:1009980001F052FF894B9B4507D92169012904D1F0
:1009A80004F57172206800F0D7FF18F0100F1CBF13
:1009B8001023B36018F0200F1CBF2023B36018F475
:1009C800005F1CBF4FF40053B36001354FEA59096B
:1009D80020361C379AE712F0280FC3D177498E4585
:1009E80001D91204B7D41B69D7F80422C3F3120340
:1009F800D31AC7F81432D7F808321A44C7F80822AD
:100A08008DB9D4F8103273B904F57172012100F070
:100A1800A3FF08E06A498E450AD110049BD49106C9
:100A280001D520229A605946204601F00BFF99E72C
:100A3800002DF8D1D4F81032002BF4D104F57172DE
:100A48002946E4E7039BDE0740F184805FFA88FBD0
:100A58005946206800F059FF0646F00721D5DAF814
:100A680034382169012008F00F0200FA02F223EA63
:100A780002038142CAF83438C9F808000DD1AB6CBA
:100A88006A6C1344AB64B8F1000F06D1236D23B927
:100A980004F57172206800F05FFF5946204601F0A6
:100AA800DAFE310744BF0823C9F80830F20644BF0C
:100AB8001023C9F80830730644BF4023C9F808302A
:100AC800B70744BF0223C9F80830300642D56B6D1A
:100AD8002E6DB3423ED8F61A6B6C226804929E4281
:100AE80028BF1E4602F51063033603EB4813B60809
:100AF8000593059B2F6D9B699BB2B3426B6D27D302
:100B08009F4225D977B9049B08F00F0203F5006BC3
:100B18000121D3F8343801FA02F223EA0203CBF8B0
:100B2800343017E0FF1A6B6C04989F4228BF1F46A9
:100B3800237C00935A46BBB2A96C00F039FDAB6C1C
:100B48003B44AB646B6DFE1C1F44B6086F65D0E771
:100B58009F42D8D9039B5B0808F1010803931C3511
:100B680009F12009EBE5204601F0ACFE01E69960A9
:100B78001A6822F400121A601A6842F000621A60B9
:100B8800C3F80812D3F8002222F40012C3F8002296
:100B9800D3F8002242F00062C3F80022029A013220
:100BA800029220330FE66B6943F4005343F02B03A2
:100BB8006B612B6943F00B032B611AE60A30544F23
:100BC8000A31544F90F8BC23012A10B504460BD0C3
:100BD800012280F8BC2384F83810006800F050FE29
:100BE800002084F8BC0310BD022010BD70B5044677
:100BF80001F00F0011F0800F4FF01C06C5B206FB84
:100C0800054115BF06FB054506FB05453C3101F5C9
:100C1800FE7115BF0126002685F83D6085F8FD6147
:100C28008A604A78CB70C0B2087002B1C880022BC3
:100C380004BF00230B7194F8BC33012B09D00123A6
:100C480084F8BC33206800F092FB002084F8BC03D1
:100C580070BD022070BD01F00F03DAB210B5044672
:100C68001C2011F0800F00FB024119BF3C3100FB32
:100C7800024200FB024201F5FE7115BF012000206F
:100C880082F83D0082F8FD010B7094F8BC33012B0B
:100C980009D0012384F8BC33206800F0ABFB0020A6
:100CA80084F8BC0310BD022010BD38B501F00F0553
:100CB8001C2404FB050104FB050401F5FE71C4F8BE
:100CC80010320023C4F80822C4F8143284F8FD3125
:100CD80084F8FC5103690068012B08BFC4F80C2292
:100CE800DAB21DB900F0DAFB002038BD00F074FC60
:100CF800FAE71C2301F00F0103FB0101D1F81402EC
:100D0800704738B501F00F051C2404FB050104FBEE
:100D180005043C312365002363650123A26484F83C
:100D28003D3084F83C5003690068012B08BFE26439
:100D3800DAB21DB900F0B2FB002038BD00F04CFC5F
:100D4800FAE738B5436801F00F059D4204462ED8EE
:100D580011F0800F4FF01C021FD002FB050102FBAF
:100D6800050301223C3381F83D2001229A701D7051
:100D780094F8BC1391421CD084F8BC23194620680F
:100D880000F026FD2DB904F57172217C206800F071
:100D9800E3FD002084F8BC0338BD02FB010302FB1D
:100DA8000101002203F5FE7381F8FD21DDE7012032
:100DB80038BD022038BD38B5436801F00F029A42A9
:100DC800044626D81C2311F0800F03FB020119BF2B
:100DD8003C3103FB020301F5FE7103FB024314BF20
:100DE800012000204FF0000514BF83F83D0083F870
:100DF800FD018D700A7094F8BC33012B0BD00123D0
:100E080084F8BC33206800F010FD84F8BC532846F1
:100E180038BD012038BD022038BD70B50468636A4A
:100E280021B943EA0243A362002070BDA06A4D1EA7
:100E380003EB10430020461CC0B2854206D83F3160
:100E480004EB810443EA02436360EDE7403004EBBE
:100E58008000406803EB10433046ECE7036800204D
:100E68005962704770470000014B1868704700BF0F
:100E7800240100202DE9F04F02460D6895FAA5F4EB
:100E88004FF0010CB4FA84F403264FF00F0E35FA34
:100E980004F001D1BDE8F08F0CFA04F32B406DD0BB
:100EA8004868471E012F1ED8976893FAA3F8B8FA26
:100EB80088F893FAA3F94FEA480806FA08F827EAE7
:100EC8000808B9FA89F98F684FEA490907FA09F752
:100ED80048EA07079760576827EA0308CF685F431F
:100EE80048EA07075760D76893FAA3F8B8FA88F86A
:100EF80093FAA3F94FEA480806FA08F827EA080817
:100F0800B9FA89F90F694FEA490907FA09F748EA6E
:100F180007070228D7601DD193FAA3F7B7FA87F716
:100F2800072FD1F814A02BDC176A93FAA3F9B9FAA2
:100F380089F993FAA3F8B8FA88F84FEA89090EFAFA
:100F480009F94FEA880827EA09070AFA08FA47EA76
:100F58000A071762D2F8008093FAA3F7B7FA87F75F
:100F680093FAA3F3B3FA83F37F0006FA07F75B005B
:100F780028EA070700FA03F33B431360013486E7C6
:100F8800D2F824B01F0A97FAA7F8B8FA88F897FA9F
:100F9800A7F7B7FA87F74FEA88080EFA08F8BF00EC
:100FA8002BEA080B0AFA07F74BEA07075762D1E75B
:100FB8000A4B013B01D1032070470269002AF8DA85
:100FC8000369064A43F001030361013AF3D0036958
:100FD80013F00103F9D11846704700BF410D030013
:100FE80084B038B505AD85E80E000A9B012B044690
:100FF80025D1836B23F480338363C36823F484038C
:1010080023F04003C360C36823F44013C360119BFB
:10101800012B02BFC36843F48013C360FFF7C8FF06
:10102800089B012B07D1A36843F00603A360A368BC
:1010380043F02003A360BDE8384004B07047C3689C
:1010480043F04003C360FFF7B3FF0E9B23B9A36BC4
:1010580043F48033A363E3E7A36B23F48033F9E716
:10106800022A58D12E4B2F4A0B44934247D92E4B74
:101078002E4A0B44934244D9A1F574032C4AA3F594
:10108800105393423FD9A1F1837302F5C332A3F5FC
:10109800E743A032934238D9264B274A0B44934260
:1010A80035D9264B02F592220B4402F57872934209
:1010B8002FD9234B02F5C3220B4402F52072934229
:1010C80029D9A1F1B77302F5B712A3F5585302F560
:1010D8005872934221D91B4B02F512220B4402F598
:1010E800F862934294BF07230623C26822F4705221
:1010F800C260C26842EA8323C360002070470F239E
:10110800F3E70E23F1E70D23EFE70C23EDE70B23BD
:10111800EBE70A23E9E70923E7E70823E5E700BF48
:10112800405327FFFF340C00401E1BFF3F420F00B7
:101138007F4F120060B6E5FE5FE3160000D3CEFED7
:10114800C05BB3FEE05459FE836843F0010383603B
:1011580000207047836823F00103836000207047F4
:1011680008B5C368012923F0C043C36008D1C36828
:1011780043F00053C3603220FFF77AF8002008BD1F
:1011880019B9C36843F08043F4E7012008BD0000A3
:10119800890141F02001064A0161013A05D003693D
:1011A80013F02003F9D1184670470320704700BF99
:1011B800410D03001023064A0361013A05D0036973
:1011C80013F01003F9D1184670470320704700BF89
:1011D800410D0300D0F800381943C0F8001800206A
:1011E8007047000084B02DE9F843044609A880E858
:1011F8000E000023139D0F46194603F1400204EB2D
:10120800820201330F2B5160F7D104F50066002DDF
:101218006CD1736843F002037360A36B43F400134B
:10122800A363A36B23F40023A363A36B23F480239A
:10123800A3630023C4F8003ED4F80038C4F800388B
:101248000E9B012B5CD10B99002957D12046FFF743
:10125800C1FF10212046FFF79BFF01462046FFF7FC
:10126800A9FF00284ED1081C18BF012000233361B4
:1012780004F5106273611946F3614FF0904E4FF018
:10128800006C4FF67F38BB423ED1002104F5306236
:101298000F464FF0904E4FF0006C4FF67F388B4260
:1012A80045D1336923F4807333610023A3616FF060
:1012B800804363610C9B1BB9A36943F01003A361CE
:1012C800A269244B1343A3610F9B1BB1A36943F08D
:1012D8000803A361012D01BFA36943F0804343F0D4
:1012E8000403A361BDE8F84304B07047A36B23F47B
:1012F8000013A363A36B43F4002399E71946A5E7FA
:101308000321A3E70120B1E7D2F80090B9F1000F5B
:101318000BDA3BB9C2F800C011610133C2F808808A
:101328002032B0E7C2F800E0F6E71160F4E7D2F83F
:101338000090B9F1000F0BDA39B9C2F800C0176193
:101348000131C2F808802032A9E7C2F800E0F6E7C8
:101358001760F4E700383C80D0F8083813F006002E
:1013680004D013F0020F14BF02200F20704770B58D
:101378004A780C78D0F81C6800F50063012A04F05C
:101388000F051BD1AA40324300EB4410DA61D0F8B4
:1013980000391A0410D48B68C978D0F80029C3F32F
:1013A8000A0343F0805343F4004343EA814343EA8A
:1013B80084531343C0F80039002070BD4FF48032C5
:1013C800AA40324300EB4410DA61D0F8003B1B041A
:1013D800F2D48B68C978D0F8002BC3F30A0343F022
:1013E800805343F4004343EA81431343C0F8003B6E
:1013F800E2E7000030B54B780C78012B4FF0200362
:1014080000F5006204F00F0513FB040020D1D0F8AA
:101418000039002B0BDAD0F8003943F00063C0F82C
:101428000039D0F8003943F08043C0F8003901236F
:10143800D16BAB40DB431940D163D1690B40D36119
:10144800D0F80029134B1340C0F80039002030BDF4
:10145800D0F8003B002B0BDAD0F8001B41F00061FC
:10146800C0F8001BD0F8001B41F08041C0F8001BF9
:101478004FF48033D16BAB40DB431940D163D16962
:101488000B40D361D0F8002B034B1340C0F8003B4E
:10149800DCE700BF007833EC0078F3EFF0B54B7869
:1014A8000C784E69414F012B4FF0200359D113FBA3
:1014B800040336BBD3F8105925F0FF5525F4C015A1
:1014C800C3F81059D3F8105945F40025C3F810593A
:1014D800D3F810592F40C3F81079012A4FF0200390
:1014E80029D10A691AB113FB0403C3F8142900EBC4
:1014F8004410D0F8002942F00442C0F80029002026
:10150800F0BD03F510631D692F401F611D6925F0AB
:10151800FF5525F4C0151D618D68AE4288BF4D6129
:101528001D6945F400251D614D691E69C5F3120545
:1015380035431D61D1E713FB0404D4F8003943F0A7
:101548000443C4F800394B69002BD8D00A78D0F886
:10155800343802F00F0101228A401A43C0F83428B7
:10156800CDE713FB040000F530631C6927401F61B9
:101578001C6924F0FF5424F4C0141C618C6806B163
:101588004C611D6945F400251D611D69C4F31204F1
:101598002C43012A1C6102D1CA6802B15A61D0F8F1
:1015A800003B43F00443C0F8003BA8E70000F8FF05
:1015B80010B59DF808404CB9033300EB023023F016
:1015C800030300F580500B44994201D1002010BD5F
:1015D80051F8042B0260F7E7F7B54B780E78734F94
:1015E800012B4FF020044B6914FB060440F098804F
:1015F800002B38D104F51065D4F8104924F0FF54B5
:1016080024F4C0142C612C6944F400242C612C6946
:1016180027402F61012A4FF0200454D10B691BB1D8
:1016280014FB0604C4F81439CB78012B10D1D0F878
:10163800083813F4807F4FF0200313FB0603D3F818
:1016480000290CBF42F0005242F08052C3F8002932
:1016580000EB4610D0F8003943F00443C0F80039D5
:10166800002003B0F0BDD4F810592F40C4F8107909
:10167800D4F810598F6825F0FF5525F4C015C4F823
:101688001059DD19013DB5FBF7F7494DD4F810E9BC
:1016980005EAC74545EA0E05C4F81059D4F810798B
:1016A800C3F312053D43C4F81059CD78012D04F554
:1016B8001064AFD1256925F0C0452561256945F03D
:1016C80000552561A6E714FB0604D4F8005945F037
:1016D8000445C4F80059CD78012D0CD0002BBFD09B
:1016E8000B78D0F8344803F00F02012393402343CA
:1016F800C0F83438B4E7D0F8085815F4807FD4F827
:1017080000590CBF45F0005545F08055C4F8005904
:101718000C7800929BB22246C968FFF749FF9FE701
:1017280004F5306635692F403761356925F0FF5576
:1017380025F4C01535618D6823BB3369C5F31205DF
:101748001D433561336943F40023012A336102D113
:10175800CB6803B17361CB78012B0CD1D0F8083872
:1017680013F4807FD4F8003B0CBF43F0005343F0E0
:101778008053C4F8003BD4F8003B43F00443C4F85A
:10178800003B6DE70A4FD6F810E02B44013BB3FB52
:10179800F5F307EAC34747EA0E0737619BB2376993
:1017A8006B43C3F312033B43CFE700BF0000F8FFCE
:1017B8000000F81F033222F003020A4400F58050AB
:1017C800914201D108467047036841F8043BF7E7A6
:1017D8004B780A78012B4FF0200313FB020012D13B
:1017E800D0F80039002B06DB2AB1D0F8003923F0F5
:1017F8008043C0F80039D0F8003943F40013C0F82A
:10180800003900207047D0F8003B002B06DB2AB1D6
:10181800D0F8003B23F08043C0F8003BD0F8003BF1
:1018280043F40013C0F8003BEBE74B780A78012B30
:101838004FF0200313FB020011D1D0F8003923F434
:101848000013C0F80039CB78023B012B05D8D0F83B
:10185800003943F08053C0F8003900207047D0F8B1
:10186800003B23F40013C0F8003BCB78023B012B6C
:101878009EBFD0F8003B43F08053C0F8003BECE734
:10188800D0F8003823F4FE63C0F80038D0F80038E8
:10189800090101F4FE611943C0F8001800207047DF
:1018A80008B5D0F8043823F00203C0F80438032040
:1018B800FEF7DEFC002008BD08B5D0F8043843F078
:1018C8000203C0F804380320FEF7D2FC002008BD4C
:1018D8004269806910407047D0F8183800F50060F8
:1018E800C0691840000C7047D0F8183800F500603F
:1018F800C069184080B2704700EB411100F50060E4
:10190800D1F8082B40691040704710B5D0F810483E
:10191800D0F8343800EB411001F00F01CB4000F54E
:101928001060DB018068DBB22343184010BD4069BA
:1019380000F001007047D0F8003923F4FF6323F06A
:101948000703C0F80039D0F8043843F48073C0F8AE
:10195800043800207047000010B5164B046C9C42F8
:1019680003D9D0F8003B002B21DB0024C0F8104B32
:10197800D0F8104B44F40024C0F8104BD0F8104BAA
:1019880044F01804C0F8104BD0F8104B012944F06B
:10199800C044C0F8104B08BFC0F8142B00F53063E2
:1019A80002BFD0F8003B43F08023C0F8003B002082
:1019B80010BD00BF0A30544F014B1860704700BF7C
:1019C80024010020D0F8C03210B5D0F8BC425BB179
:1019D80094F80002FF2807D09B6894F8012221465A
:1019E8009847FF2384F80032002010BD432303806A
:1019F8000048704740000020432303800048704798
:101A0800840000204323038000487047D40000204E
:101A18000A23038000487047C800002038B5D0F872
:101A2800BC4205466CB101F015F8D5F8C032C4F8CF
:101A38000C02DB68D4F8040204F50371984700200F
:101A480038BD032038BDF8B5D0F8BC3205460A4683
:101A580023B3142606FB0106B7699FB1D0F8C44228
:101A68004FF01C0E0EFB0144D4F844E0B7FBFEF423
:101A78000EFB147434B9B4612346224600F0CEFF3D
:101A88002046F8BDD5F8C012D3F808020D69002425
:101A9800C3F8144203F50471A847F1E70320F8BD21
:101AA8002DE9F7430A78D0F8BC724FF0000812F01D
:101AB800600305460E468DF80580ADF8068025D0F2
:101AC800202B57D1CC884B78CCB112060DD5D0F845
:101AD800C0223946D2F8089018462246C847F288EC
:101AE8003946284600F094FC07E087F8003287F86A
:101AF80001422246394600F0A0FC00203DE0D0F823
:101B0800C022184695682246A847F6E74B780B2B63
:101B18002ED801A252F823F0511B0008031B00081D
:101B2800791B0008791B0008791B0008791B00083D
:101B3800791B0008791B0008791B0008791B00082D
:101B4800611B0008711B000890F89C32032B0FD111
:101B580002220DF10601C4E790F89C32032B07D14D
:101B680001220DF10501BCE790F89C32032BC4D08B
:101B78003146284600F025FC032003B0BDE8F08379
:101B880038B504460025812100F0FCFE0121258797
:101B9800204600F0F7FEA4F878518221204600F094
:101BA800F1FED4F8BC32A4F84C50A4F84E504BB116
:101BB800D4F8C0325B689847D4F8BC0201F022F828
:101BC800C4F8BC52002038BD2DE9F04104464FF45A
:101BD800077001F00FF80646C4F8BC0210B90220DD
:101BE800BDE8F081237CB3BB4FF40073022281214E
:101BF8002046012500F0B6FE25874FF400732946DC
:101C08000222204600F0AEFE1023A4F87851A4F872
:101C18004E30032208238221204600F0A3FED4F888
:101C2800C0320127A4F84C701B68984794F81080BC
:101C38000025C6F81452C6F81852B8F1000F14D18E
:101C48004FF40073D6F804223946204600F0F4FE1B
:101C58004046BDE8F081402302228121204601252B
:101C680000F080FE25874023C9E74023D6F80422E8
:101C78003946204600F0E0FE2846BDE8F08119B15B
:101C8800C0F8C0120020704703207047D0F8BC325B
:101C98000020C3F80812C3F810227047D0F8BC32ED
:101CA8000020C3F804127047D0F8BC2210B57AB1EE
:101CB800D2F8144201236CB9C2F81432D2F81032A7
:101CC800C362D2F80822812100F0A8FE204610BD88
:101CD800032010BD184610BDD0F8BC2210B562B163
:101CE800047C44B94FF40073D2F80422012100F0B7
:101CF800A3FE002010BD4023F6E7032010BDA0B1CD
:101D0800D0F8B83213B10023C0F8B832D0F8CC32CA
:101D180013B10023C0F8CC3209B1C0F8B4120123C2
:101D280080F89C32027000F0E1BD0320704737B59F
:101D380000240546ADF8064051B1C0F8B8128B6AC8
:101D48000DF106009847C5F8CC02204603B030BD17
:101D58000320FBE700F0F8BDD0F8B8320BB11B68E0
:101D680018470320704708B5D0F8B8320BB15B6844
:101D78009847002008BD38B5044600F2AA25284631
:101D880000F00BFB012394F8AA12C4F89432B4F8BB
:101D9800B032C4F8983201F01F03012B0FD008D3DA
:101DA800022B12D0204601F08001BDE8384000F037
:101DB800F7BD29462046BDE8384000F0F5B8294669
:101DC8002046BDE8384000F02FBA29462046BDE835
:101DD800384000F050BA70B50446164609BBD0F832
:101DE8009432032B0ED1D0F85C31D0F860219342A5
:101DF8000AD99B1A9A42C0F85C3128BF1A46314664
:101E080000F02AFB002070BDD0F8B8321B6923B15E
:101E180090F89C22032A00D19847204600F024FB22
:101E2800F0E7D0F8B8329B6933B190F89C22032AC6
:101E380002D1BDE870401847032070BD70B5044654
:101E480016460D4600293BD1D0F89432022B0ED10C
:101E5800C269036A9A4213D9D21AC261314600F0A4
:101E6800E4FA2B462A462946204600F0E5FD94F878
:101E7800A032012B4FF000002ED184F8A00270BDD3
:101E88000CD183699A4209D8D0F89822934205D296
:101E98000A4600F0CAFAC4F89852E2E7D4F8B83211
:101EA800DB682BB194F89C22032A01D1204698477D
:101EB8008021204600F074FD204600F0E0FAD6E7C5
:101EC800D0F8B8325B6933B190F89C22032A02D16A
:101ED800BDE870401847032070BD012370B580F835
:101EE8009C32D0F8BC3200210446C0F894124160FC
:101EF800C0F8A4121BB1D0F8B8325B68984700222A
:101F08004025114601264023204600F02BFDA4F869
:101F18006461C4F860512B4600228021204600F0FD
:101F280021FDA6842562002070BD01740020704741
:101F380090F89C3280F89D32042380F89C3200206F
:101F4800704790F89C32042B04BF90F89D3280F8BB
:101F58009C320020704708B590F89C22032A04D1CF
:101F6800D0F8B832DB6903B19847002008BD0020DB
:101F780070470020704700207047012208B580F89C
:101F88009C22D0F8B82212B15268017990470020FB
:101F980008BD10B58021044600F002FD204600214E
:101FA800BDE8104000F0FCBCF7B50B7803F0600307
:101FB800202B04460E4612D0402B10D0002B59D1AE
:101FC8004B78092B55D8DFE813F000011E015400A7
:101FD80015015400810014005400E900A000D4F851
:101FE800B83231469B68204698470546284603B0D4
:101FF800F0BD0023ADF806304B881A0A013A062ACC
:1020080037D8DFE802F0041C2936364E5800D0F8DD
:10201800B4321B68207C0DF106019847F288002A2B
:1020280000F0ED80BDF806301BB39A4228BF1A466F
:10203800ADF806200146204600F0EAF95FE0027C90
:10204800D0F8B83232B99B6A0DF1060098470223DE
:102058004370E3E7DB6AF7E7DBB2052B09D8DFE873
:1020680003F0030C1014181CD0F8B4325B68002B72
:10207800D0D12046FFF78DFF41E0D0F8B4329B68FD
:10208800F5E7D0F8B432DB68F1E7D0F8B4321B6971
:10209800EDE7D0F8B4325B69E9E7D0F8B4329B6970
:1020A800E5E7037C002BE4D1D0F8B8320DF1060047
:1020B8005B6B9847B2E7037C002BDAD1D0F8B832D3
:1020C8000DF106001B6B98470723C1E78B88002B8F
:1020D800CFD1CF88002FCCD14D887F2DC9D890F88B
:1020E8009C32032BE9B2C4D080F89E1200F088FC21
:1020F800204600F0B9F925B1022384F89C32002566
:1021080074E7012384F89C3270E78D78454E012DE1
:10211800357003D9FFF73DFF032567E790F89C3238
:10212800022B08D0032B16D0FFF733FF3178204657
:10213800FFF719FEF0E7002D61D001214160FFF79C
:102148000BFE0546204615B1FFF723FF4EE700F0CA
:102158008BF90323D6E755B9022380F89C324560F2
:102168002946FFF700FE204600F07EF93EE7416869
:10217800012944D0C9B2FFF7F6FD317861602046E5
:10218800FFF7EAFD0546002839D02046FFF701FF92
:1021980021792046FFF7E7FD0223B3E7CA88012A21
:1021A8007FF467AF90F89C32002B3FF462AF022BAC
:1021B80004D9032B7FF45DAF011D3CE701460025E0
:1021C80041F8085F00F024F910E790F89C32013BD1
:1021D800022B3FF64EAFCB88022B7FF44AAF012388
:1021E800C360D0F8A4320BB10323C360022204F108
:1021F8000C0120E74B88012B81D1C0F8A43220467E
:1022080000F032F97BE790F89C32013B022B4FF04B
:10221800000599D84B88012B7FF4E8AEC0F8A4528A
:10222800A1E700BF0C02002070B50B7803F0600333
:10223800202B04460E4602D0402B00D0BBB994F8A0
:102248009C32013B022B11D83379012B0ED8D4F8DC
:10225800B83231469B6820469847F38805461BB933
:1022680010B9204600F000F9284670BD2046FFF757
:1022780090FE0025F8E770B50B7803F06003202B7B
:1022880004460D4613D0402B11D06BB96A788B8861
:10229800012AD9B220D03FD3032A05D190F89C3225
:1022A800022B30D0032B0AD0FFF773FE12E0D4F8CC
:1022B800B832294620469B68BDE8704018476B88AD
:1022C8002BB94A0603D0EB880BB900F069FB20460E
:1022D80000F0CAF8002070BD90F89C32022B12D092
:1022E800032BE1D16B88002BF4D14E0601D000F00E
:1022F80065FB204600F0B8F8D4F8B83229469B6848
:1023080020469847E6E74B0617D000F049FB8021A6
:10231800204600F045FBDDE790F89C22022A0ED00B
:10232800032AC1D113F0800F01F00F024FF01403FC
:1023380003FB020212D0928CDAB92046B4E74A06AF
:10234800FBD11B064CBF00F1140100F5AA71002354
:102358000B600222204600F05BF8BBE7B2F864216C
:10236800002AEAD001F07F0503FB050505F5AA75EB
:1023780004E001F07F0505FB0335054411F07F03F8
:1023880003D12B6002222946E4E7204600F024FB13
:1023980008B10123F5E72860F4E70B7803704B7860
:1023A8004370CA788B7843EA022343804A790B79D1
:1023B80043EA02238380CA798B7943EA0223C380E4
:1023C800704710B58021044600F0EAFA2046002143
:1023D800BDE8104000F0E4BA30B588B105462B1AC4
:1023E80015F8014BDBB2002CF9D101335B001380E7
:1023F8000B7003234B700138022310F8012F02B928
:1024080030BDCA545A1CD2B202338C54DBB2F4E742
:1024180010B513460222C0F8942283610A46C361AC
:10242800002100F0FBFA002010BD08B513460A464B
:10243800002100F0F3FA002008BD10B5134603226E
:10244800C0F89422C0F858310A46C0F85C3100211F
:1024580000F0F2FA002010BD08B513460A46002124
:1024680000F0EAFA002008BD08B50423C0F8943249
:1024780000231A46194600F0D1FA002008BD08B515
:102488000523C0F8943200231A46194600F0D4FAFE
:10249800002008BD024A136843F002031360704726
:1024A80010E000E00B4A13889BB2632B10B510D9DB
:1024B80000231380084A094C536983F480735361DD
:1024C8002046FDF77DFE81B2204600F05DF9012827
:1024D800F6D010BD200200200004024017010020A1
:1024E800054B1A6B02431A631B6B82B018400190AC
:1024F800019B02B0704700BF00380240294A08B566
:10250800136823F00F0343F0050313601368A2F563
:10251800E632136843F480431360234B1A6842F48D
:1025280080321A601A689103FCD55A681F49114015
:102538001F4A0A435A605A681E4922F440325A60B8
:102548005A6811401C4A0A435A601A6842F080725D
:102558001A60154B1A689201FCD59A6822F0F002AD
:102568009A609A6822F4E05242F4A0529A609A68FB
:1025780022F4604242F400429A609A6822F0030210
:1025880042F002029A60084A936803F00C03082B91
:10259800FAD10A48FFF710FA0020BDE80840FDF715
:1025A80017BE00BF003C0240003802400080BFFF59
:1025B800042A40000080BFF0042A4007007A030A7A
:1025C8007FB5FDF729FEFFF799FF1822002168461D
:1025D80000F020FB8020FFF783FF0120FFF780FF3A
:1025E8000220FFF77DFF0B484FF0807383610124C1
:1025F8004FF4807369468DE8180000230293039313
:102608000493FEF737FC00F065F8FFF743FFFFF788
:1026180049FFFCE7000402407047000082B00C4B01
:10262800002100915A6C42F480425A645A6C02F4B8
:1026380080420092009A01911A6C42F080521A640A
:102648001B6C03F080530193019B02B0704700BFDD
:10265800003802407047FEE7FEE7FEE7FEE77047F6
:1026680070477047034A138801339BB21380FDF704
:10267800EDBD00BF200200200148FDF7FDBF00BFEF
:102688000015002008B50A4B1968024609B909491E
:1026980019601868694602448A4206D900F080FA2F
:1026A8000C2303604FF0FF3008BD1A6008BD00BF5F
:1026B800100200200C1B0020054BD3F8882042F4A0
:1026C8007002C3F888204FF000629A60704700BF1C
:1026D80000ED00E008B500220E490F48FFF70FFB98
:1026E80008B1FFF799FF0D490B48FFF720FB08B128
:1026F800FFF792FF0A490848FFF7C1FA08B1FFF748
:102708008BFF0548FFF726FB18B1BDE80840FFF727
:1027180083BF08BD3C0100203002002008000020D3
:1027280028010020002070470020704710B5054C94
:1027380001462046FFF7B2FA2046FFF7CDFA0020FF
:1027480010BD00BF3002002010B5064C064900221B
:102758002046FFF79BFA05492046FFF79FFA00201D
:1027680010BD00BF30020020000D00200005002031
:10277800212807D100230B704B708B70CB700B7125
:102788004B718B710020704710B5094CD4F8BC32DE
:10279800D3F814320A4643B901462046FFF776FAC1
:1027A8002046BDE81040FFF77FBA012010BD00BFEA
:1027B8003002002030B5044689B01422002103A855
:1027C80000F028FA2368B3F1A04F2ED1184C19480D
:1027D80000250195236B43F001032363236B03F06A
:1027E80001030193019B4FF4C05303930223049305
:1027F8000323069303A90A230793FDF7B7FD636B29
:1028080043F0800363630295636C43F4804363641D
:10281800636C03F48043029343202A462946029BB3
:10282800FDF74CFD4320FDF77DFD09B030BD00BF2D
:10283800003802400000024000F57171D0F804042D
:10284800FFF799BA1C2303FB0103D0F80404D3F85B
:102858000822FFF7C0BA1C2303FB0103D0F80404C5
:102868009A6CFFF7EBBAD0F80404FFF774BBC168A1
:1028780010B5044621B1022901D0FFF7CDFE012190
:10288800D4F80404FFF751FBD4F80404BDE8104061
:10289800FFF723BB10B50446D0F80404FFF748FB44
:1028A8002268D2F8003E43F00103C2F8003E236AD2
:1028B80023B1034A136943F00603136110BD00BF37
:1028C80000ED00E0D0F80404FFF73BBBD0F80404A7
:1028D800FFF74FBBD0F80404FFF749BBD0F8040456
:1028E800FFF749BBD0F80404FFF747BB08B50278E7
:1028F80032BB144B0421C3F80404C0F8C4324FF0AF
:10290800A04083E8030002211846D9601A61996142
:10291800DA611A625A62DA621A63FDF707FE08B1D1
:10292800FFF77AFE80210748FEF798FA4022002137
:102938000448FEF772FA802201210248FEF76DFA78
:10294800002008BD0015002008B5D0F8C402FDF726
:1029580074FE03289ABF024B185C032008BD00BF11
:10296800C02D000810B51C46D0F8C40213462246F4
:10297800FEF73CF903289ABF014B185C032010BDF1
:10298800C02D000808B5D0F8C402FEF764F9032882
:102998009ABF024B185C032008BD00BFC02D000879
:1029A80008B5D0F8C402FEF7CCF903289ABF024B49
:1029B800185C032008BD00BFC02D000808B5D0F87A
:1029C800C402FEF7F8F903289ABF024B185C0320EB
:1029D80008BD00BFC02D000811F0800FD0F8C43228
:1029E8004FF01C021BBF01F07F0102FB013102FB0B
:1029F800013191F83E0008BF91F8FE0170470000D0
:102A080008B5D0F8C402FEF7DDF803289ABF024BD8
:102A1800185C032008BD00BFC02D000808B5D0F819
:102A2800C402FEF76EF903289ABF024B185C032014
:102A380008BD00BFC02D000808B5D0F8C402FEF7D5
:102A480034F903289ABF024B185C032008BD00BF65
:102A5800C02D0008D0F8C402FEF74BB912230B8032
:102A6800004870475801002004230B800048704735
:102A78006C010020002330B51D46DCB2A24200D80C
:102A880030BD040F092C94BF3034373401F813409B
:102A980001EB4304000165700133EEE71A2310B51A
:102AA8000B80094B186808331B68C0180AD0074BFD
:102AB80007491C680822FFF7DDFF04220549204664
:102AC800FFF7D8FF044810BD107AFF1F147AFF1FC4
:102AD80072010020820100207001002010B5044C12
:102AE80004480A462146FFF777FC204610BD00BF80
:102AF80008190020DD2D000810B5044C04480A46CA
:102B08002146FFF769FC204610BD00BF08190020C8
:102B1800EF2D000810B5044C04480A462146FFF77B
:102B28005BFC204610BD00BF08190020C42D00081A
:102B380010B5044C04480A462146FFF74DFC2046D0
:102B480010BD00BF08190020CF2D0008DFF834D0D1
:102B5800002103E00C4B5B58435004310B480C4BED
:102B680042189A42F6D30B4A02E0002342F8043B8B
:102B7800094B9A42F9D3FFF79FFD00F017F8FFF7CA
:102B88001FFD704700000220102E000800000020E2
:102B9800F0010020F00100200C1B0020FEE70000DF
:102BA800014B1868704700BF8C01002070B50D4EAE
:102BB8000D4CA41BA4100025A54209D10B4E0C4CAA
:102BC80000F0EEF8A41BA4100025A54205D170BDA5
:102BD80056F8253098470135EEE756F825309847DE
:102BE8000135F2E7082E0008082E0008082E000814
:102BF8000C2E0008024B0146186800F061B800BFAF
:102C08008C010020024B0146186800F00BB800BF89
:102C18008C01002002440346934200D1704703F818
:102C2800011BF9E738B50546002945D051F8043CA1
:102C38000C1F002BB8BFE41800F0B0F81F4A136847
:102C4800104633B9636014602846BDE8384000F088
:102C5800A6B8A3420CD921686218934204BF1A6827
:102C68005B68636004BF521822600460ECE7134697
:102C78005A680AB1A242FAD919685818A0420BD169
:102C880020680144581882421960DDD110685268E2
:102C98005A6001441960D7E702D90C232B60D3E7A7
:102CA800206821188A4204BF11685268626004BF14
:102CB800091821605C60C7E738BD00BF1402002016
:102CC80070B5CD1C25F0030508350C2D38BF0C2533
:102CD800002D064601DBA94203D90C2333600020EE
:102CE80070BD00F05BF8234A1468214691B9224C64
:102CF80023681BB9304600F041F820602946304669
:102D080000F03CF8431C26D10C233360304600F019
:102D180046F8E4E70B685B1B1AD40B2B0FD90B6042
:102D2800CD50CC18304600F03AF804F10B00231DC2
:102D380020F00700C31A1BD05A42E25070BD8C42E3
:102D48000DBF63684B686360136018BF0C46E9E702
:102D58000C464968CAE7C41C24F00304A04205D005
:102D6800211A304600F00AF80130CDD02560D9E7A5
:102D780070BD00BF140200201802002038B5064CB0
:102D88000023054608462360FFF77CFC431C02D15C
:102D9800236803B12B6038BD081B002070477047BB
:102DA800F8B500BFF8BC08BC9E467047F8B500BF30
:082DB800F8BC08BC9E46704700
:102DC0000003010343444320436F6E666967004379
:102DD000444320496E746572666163650053696E91
:102DE00067756C617220456E67696E656572005328
:102DF000544D3332205669727475616C20436F6D87
:082E0000506F72740000000025
:042E0800AD01000810
:042E0C008901000830
:102E10000100000010000000D11B0008891B000801
:102E2000A91A000800000000CD1900084F1A000878
:102E3000251A00080000000000000000000000004B
:102E4000011A0008F51900080D1A0008191A0008DF
:102E500009024300020100C032090400000102021D
:102E600001000524001001052401000104240202D0
:102E7000052406000107058203080010090401006B
:102E8000020A000000070501024000000705810258
:102E90004000000009024300020100C032090400A2
:102EA00000010202010005240010010524010001B7
:102EB000042402020524060001070582030800100D
:102EC00009040100020A00000007050102000200D7
:102ED00007058102000200000A060002000000400F
:102EE0000100000009074300020104C03209040088
:102EF0000001020201000524001001052401000167
:102F000004240202052406000107058203080010BC
:102F100009040100020A0000000705010240000048
:102F20000705810240000055534220546573742EFA
:102F30002E2E00000024F400512700082D27000841
:102F4000792700083527000831270008652A00087E
:102F5000712A0008E52A0008012B0008A52A0008AC
:102F60001D2B0008392B000812010002020200404C
:102F70008304405700020102030100000403090416
:102F80001A03000000000000000000000000000024
:102F90000000000000000000000000009001002080
:102FA0000000000000000000000000000000000021
:102FB0000000000000000000000000000000000011
:102FC0000000000000000000000000000000000001
:102FD00000000000000000000000000000000000F1
:102FE00000000000000000000000000000000000E1
:102FF00000000000000000000000000000000000D1
:0400000508002B556F
:00000001FF
