:020000040800F2
:1000000000000220CD0400089D0400089F040008A1
:10001000A1040008A3040008A504000800000000D3
:10002000000000000000000000000000A70400081D
:10003000A904000800000000AB040008AD0400089B
:100040001D0500081D0500081D0500081D05000808
:100050001D0500081D0500081D0500081D050008F8
:100060001D0500081D0500081D0500081D050008E8
:100070001D0500081D0500081D0500081D050008D8
:100080001D0500081D0500081D0500081D050008C8
:100090001D0500081D0500081D0500081D050008B8
:1000A0001D0500081D0500081D0500081D050008A8
:1000B0001D0500081D0500081D0500081D05000898
:1000C0001D0500081D0500081D0500081D05000888
:1000D0001D0500081D0500081D0500081D05000878
:1000E0001D0500081D0500081D0500081D05000868
:1000F0001D0500081D0500081D0500081D05000858
:100100001D0500081D0500081D0500081D05000847
:100110001D0500081D0500081D0500081D05000837
:100120001D0500081D0500081D0500081D05000827
:100130001D05000800000000000000001D0500086B
:100140001D0500081D0500081D0500081D05000807
:100150001D0500081D0500081D0500081D050008F7
:100160001D0500081D0500081D0500081D050008E7
:100170001D0500081D05000800000000000000002B
:080180001D0500081D05000823
:1001880010B5054C237833B9044B13B10448AFF3C9
:1001980000800123237010BD04000020000000002F
:1001A8007805000808B5034B1BB103490348AFF3B2
:1001B800008008BD00000000080000207805000845
:1001C8002DE9F04F02460D6895FAA5F44FF0010CA1
:1001D800B4FA84F403264FF00F0E35FA04F001D177
:1001E800BDE8F08F0CFA04F32B406DD04868471E29
:1001F800012F1ED8976893FAA3F8B8FA88F893FAEB
:10020800A3F94FEA480806FA08F827EA0808B9FAED
:1002180089F98F684FEA490907FA09F748EA070791
:100228009760576827EA0308CF685F4348EA0707DB
:100238005760D76893FAA3F8B8FA88F893FAA3F93D
:100248004FEA480806FA08F827EA0808B9FA89F9C7
:100258000F694FEA490907FA09F748EA0707022828
:10026800D7601DD193FAA3F7B7FA87F7072FD1F80C
:1002780014A02BDC176A93FAA3F9B9FA89F993FA4F
:10028800A3F8B8FA88F84FEA89090EFA09F94FEA8B
:10029800880827EA09070AFA08FA47EA0A071762E4
:1002A800D2F8008093FAA3F7B7FA87F793FAA3F383
:1002B800B3FA83F37F0006FA07F75B0028EA07071B
:1002C80000FA03F33B431360013486E7D2F824B005
:1002D8001F0A97FAA7F8B8FA88F897FAA7F7B7FAAB
:1002E80087F74FEA88080EFA08F8BF002BEA080BD0
:1002F8000AFA07F74BEA07075762D1E74FF47A7310
:10030800B0FBF3F0034B0022013858609A600522D5
:100318001A60704710E000E0014B1860704700BF9A
:1003280000000020054B1A6B02431A631B6B82B056
:1003380018400190019B02B0704700BF003802408E
:100348002A4A08B5136823F00F0343F00503136026
:100358001368A2F5E632136843F480431360244B14
:100368001A6822F0F80242F080021A601A6842F015
:1003780001021A601A689107FCD559681D4A0A409B
:1003880042F4285242F008025A605A6822F4403275
:100398005A601A6842F080721A60154B1A68920106
:1003A800FCD59A6822F0F0029A609A6822F4E0522A
:1003B80042F4A0529A609A6822F4604242F40042E1
:1003C8009A609A6822F0030242F002029A60084A90
:1003D800936803F00C03082BFAD10748FFF78EFF48
:1003E8000548BDE80840FFF797BF00BF003C024042
:1003F800003802400080BFFF007A030A214B2249DF
:100408005A6C224C00B542F480425A645A6C89B046
:1004180002F480420192019A1A6C42F080521A64E6
:100428001B6C03F080530093009BCA68184B22F49E
:10043800E0621204120C1343CB60FFF781FF002126
:10044800182202A800F08CF88020FFF76BFF01202B
:10045800FFF768FF0220FFF765FF4FF08073A36185
:100468004FF4807302930123039302A900232046CB
:10047800049305930693FFF7A3FE636983F48073DF
:100488006361FAE70038024000ED00E00004024032
:100498000003FA057047FEE7FEE7FEE7FEE7704750
:1004A8007047704770470000054BD3F8882042F426
:1004B8007002C3F888204FF000629A60704700BF4E
:1004C80000ED00E0DFF834D0002103E00C4B5B586E
:1004D800435004310B480C4B42189A42F6D30B4A4E
:1004E80002E0002342F8043B094B9A42F9D3FFF794
:1004F800DBFF00F011F8FFF781FF704700000220D2
:1005080098050008000000200400002004000020D6
:1005180020000020FEE7000070B50D4E0D4CA41B16
:10052800A4100025A54209D10B4E0C4C00F020F870
:10053800A41BA4100025A54205D170BD56F825308E
:1005480098470135EEE756F8253098470135F2E728
:10055800900500089005000890050008940500081B
:1005680002440346934200D1704703F8011BF9E7A0
:10057800F8B500BFF8BC08BC9E467047F8B500BF88
:08058800F8BC08BC9E46704758
:04059000AD010008B1
:0405940089010008D1
:040598000024F40047
:04000005080004CD1E
:00000001FF
