:020000040800F2
:1000000000000220611D0008211D0008231D0008BA
:10001000251D0008271D0008291D000800000000FC
:100020000000000000000000000000002B1D000880
:100030002D1D0008000000002F1D0008311D0008C4
:10004000B11D0008B11D0008B11D0008B11D000858
:10005000B11D0008B11D0008B11D0008B11D000848
:10006000B11D0008B11D0008B11D0008B11D000838
:10007000B11D0008B11D0008B11D0008B11D000828
:10008000B11D0008B11D0008B11D0008B11D000818
:10009000B11D0008B11D0008B11D0008B11D000808
:1000A000B11D0008B11D0008B11D0008B11D0008F8
:1000B000B11D0008B11D0008B11D0008B11D0008E8
:1000C000B11D0008B11D0008B11D0008B11D0008D8
:1000D000B11D0008B11D0008B11D0008B11D0008C8
:1000E000B11D0008B11D0008B11D0008B11D0008B8
:1000F000B11D0008B11D0008B11D0008B11D0008A8
:10010000B11D0008B11D0008B11D0008B11D000897
:10011000B11D0008B11D0008B11D0008B11D000887
:10012000B11D0008B11D0008B11D0008B11D000877
:10013000B11D00080000000000000000B11D000813
:10014000B11D0008B11D0008B11D0008B11D000857
:10015000B11D0008B11D0008B11D0008B11D000847
:10016000B11D0008B11D0008B11D0008B11D000837
:10017000B11D0008B11D00080000000000000000D3
:08018000B11D0008B11D0008CB
:1001880010B5054C237833B9044B13B10448AFF3C9
:1001980000800123237010BD8400002000000000AF
:1001A800982F000808B5034B1BB103490348AFF368
:1001B800008008BD0000000088000020982F00087B
:1001C80081F0004102E000BF83F0004330B54FEA00
:1001D80041044FEA430594EA050F08BF90EA020F6D
:1001E8001FBF54EA000C55EA020C7FEA645C7FEA00
:1001F800655C00F0E2804FEA5454D4EB5555B8BF23
:100208006D420CDD2C4480EA020281EA030382EA93
:10021800000083EA010180EA020281EA0303362D25
:1002280088BF30BD11F0004F4FEA01314FF4801CF8
:100238004CEA113102D0404261EB410113F0004F0A
:100248004FEA03334CEA133302D0524263EB4303C1
:1002580094EA050F00F0A780A4F10104D5F1200E5F
:100268000DDB02FA0EFC22FA05F2801841F10001BA
:1002780003FA0EF2801843FA05F359410EE0A5F18E
:1002880020050EF1200E012A03FA0EFC28BF4CF0BF
:10029800020C43FA05F3C01851EBE37101F0004575
:1002A80007D54FF0000EDCF1000C7EEB00006EEB82
:1002B8000101B1F5801F1BD3B1F5001F0CD349080C
:1002C8005FEA30004FEA3C0C04F101044FEA445263
:1002D80012F5800F80F09A80BCF1004F08BF5FEAEA
:1002E800500C50F1000041EB045141EA050130BDCA
:1002F8005FEA4C0C404141EB010111F4801FA4F16D
:100308000104E9D191F0000F04BF01460020B1FAC1
:1003180081F308BF2033A3F10B03B3F120020CDAF9
:100328000C3208DD02F1140CC2F10C0201FA0CF0D7
:1003380021FA02F10CE002F11402D8BFC2F1200C3C
:1003480001FA02F120FA0CFCDCBF41EA0C019040F2
:10035800E41AA2BF01EB0451294330BD6FEA04043B
:100368001F3C1CDA0C340EDC04F11404C4F1200226
:1003780020FA04F001FA02F340EA030021FA04F338
:1003880045EA030130BDC4F10C04C4F1200220FA8F
:1003980002F001FA04F340EA0300294630BD21FACD
:1003A80004F0294630BD94F0000F83F4801306BF93
:1003B80081F480110134013D4EE77FEA645C18BF87
:1003C8007FEA655C29D094EA050F08BF90EA020F1E
:1003D80005D054EA000C04BF1946104630BD91EA16
:1003E800030F1EBF0021002030BD5FEA545C05D119
:1003F8004000494128BF41F0004130BD14F5800458
:100408003CBF01F5801130BD01F0004545F0FE41CB
:1004180041F470014FF0000030BD7FEA645C1ABF00
:10042800194610467FEA655C1CBF0B46024650EA37
:10043800013406BF52EA033591EA030F41F4002163
:1004480030BD00BF90F0000F04BF0021704730B5E9
:100458004FF4806404F132044FF000054FF00001BE
:1004680050E700BF90F0000F04BF0021704730B57F
:100478004FF4806404F1320410F0004548BF404254
:100488004FF000013EE700BF42004FEAE2014FEAA9
:1004980031014FEA02701FBF12F07F4393F07F4F84
:1004A80081F06051704792F0000F14BF93F07F4FB6
:1004B800704730B54FF4607401F0004521F00041F9
:1004C80020E700BF50EA010208BF704730B54FF07F
:1004D80000050AE050EA010208BF704730B511F084
:1004E800004502D5404261EB41014FF4806404F1BC
:1004F80032045FEA915C3FF4DCAE4FF003025FEA3E
:10050800DC0C18BF03325FEADC0C18BF033202EBC5
:10051800DC02C2F1200300FA03FC20FA02F001FA1F
:1005280003FE40EA0E0021FA02F11444C1E600BFBE
:1005380070B54FF0FF0C4CF4E06C1CEA11541DBF71
:100548001CEA135594EA0C0F95EA0C0F00F0DEF83C
:100558002C4481EA030621EA4C5123EA4C5350EA21
:10056800013518BF52EA033541F4801143F4801372
:1005780038D0A0FB02CE4FF00005E1FB02E506F003
:100588000042E0FB03E54FF00006E1FB03569CF058
:10059800000F18BF4EF0010EA4F1FF04B6F5007F5E
:1005A80064F5407404D25FEA4E0E6D4146EB0606D0
:1005B80042EAC62141EA55514FEAC52040EA5E5059
:1005C8004FEACE2EB4F1FD0C88BFBCF5E06F1ED803
:1005D800BEF1004F08BF5FEA500E50F1000041EB3A
:1005E800045170BD06F0004646EA010140EA0200E7
:1005F80081EA0301B4EB5C04C2BFD4EB0C0541EA09
:10060800045170BD41F480114FF0000E013C00F31D
:10061800AB8014F1360FDEBF002001F0004170BD41
:10062800C4F10004203C35DA0C341BDC04F114045A
:10063800C4F1200500FA05F320FA04F001FA05F2E6
:1006480040EA020001F0004221F0004110EBD370B3
:1006580021FA04F642EB06015EEA430E08BF20EADF
:10066800D37070BDC4F10C04C4F1200500FA04F382
:1006780020FA05F001FA04F240EA020001F0004114
:1006880010EBD37041F100015EEA430E08BF20EA87
:10069800D37070BDC4F1200500FA05F24EEA020ECF
:1006A80020FA04F301FA05F243EA020321FA04F0FE
:1006B80001F0004121FA04F220EA020000EBD370B5
:1006C8005EEA430E08BF20EAD37070BD94F0000FB5
:1006D8000FD101F00046400041EB010111F4801FE9
:1006E80008BF013CF7D041EA060195F0000F18BF9A
:1006F800704703F00046520043EB030313F4801FD6
:1007080008BF013DF7D043EA0603704794EA0C0F8F
:100718000CEA135518BF95EA0C0F0CD050EA4106A5
:1007280018BF52EA4306D1D181EA030101F0004122
:100738004FF0000070BD50EA410606BF104619464A
:1007480052EA430619D094EA0C0F02D150EA013656
:1007580013D195EA0C0F05D152EA03361CBF104697
:1007680019460AD181EA030101F0004141F0FE4136
:1007780041F470014FF0000070BD41F0FE4141F4BA
:10078800780170BD70B54FF0FF0C4CF4E06C1CEABA
:1007980011541DBF1CEA135594EA0C0F95EA0C0F6F
:1007A80000F0A7F8A4EB050481EA030E52EA03352A
:1007B8004FEA013100F088804FEA03334FF080554B
:1007C80045EA131343EA12634FEA022245EA111578
:1007D80045EA10654FEA00260EF000419D4208BF29
:1007E800964244F1FD0404F5407402D25B084FEAD6
:1007F8003202B61A65EB03055B084FEA32024FF482
:1008080080104FF4002CB6EB020E75EB030E22BFDE
:10081800B61A754640EA0C005B084FEA3202B6EB9E
:10082800020E75EB030E22BFB61A754640EA5C004D
:100838005B084FEA3202B6EB020E75EB030E22BFDD
:10084800B61A754640EA9C005B084FEA3202B6EBDE
:10085800020E75EB030E22BFB61A754640EADC009D
:1008680055EA060E18D04FEA051545EA16754FEAFF
:1008780006164FEAC30343EA52734FEAC2025FEA1D
:100888001C1CC0D111F4801F0BD141EA00014FF0AC
:1008980000004FF0004CB6E711F4801F04BF01437D
:1008A8000020B4F1FD0C88BFBCF5E06F3FF6AFAE99
:1008B800B5EB030C04BFB6EB020C5FEA500C50F129
:1008C800000041EB045170BD0EF0004E4EEA1131AC
:1008D80014EB5C04C2BFD4EB0C0541EA045170BDB3
:1008E80041F480114FF0000E013C90E645EA060EF7
:1008F8008DE60CEA135594EA0C0F08BF95EA0C0F25
:100908003FF43BAF94EA0C0F0AD150EA01347FF46C
:1009180034AF95EA0C0F7FF425AF104619462CE743
:1009280095EA0C0F06D152EA03353FF4FDAE1046A6
:10093800194622E750EA410618BF52EA43067FF4F7
:10094800C5AE50EA41047FF40DAF52EA43057FF487
:10095800EBAE12E74FF0FF3C06E000BF4FF0010C92
:1009680002E000BF4FF0010C4DF804CD4FEA410CF6
:100978007FEA6C5C4FEA430C18BF7FEA6C5C1BD0C3
:1009880001B050EA410C0CBF52EA430C91EA030F44
:1009980002BF90EA020F0020704710F1000F91EAA1
:1009A800030F58BF994208BF90422CBFD8176FEA6F
:1009B800E37040F0010070474FEA410C7FEA6C5C3D
:1009C80002D150EA013C07D14FEA430C7FEA6C5C44
:1009D800D6D152EA033CD3D05DF8040B704700BF70
:1009E8008446104662468C461946634600E000BFBE
:1009F80001B5FFF7B7FF002848BF10F1000F01BD90
:100A08004DF808EDFFF7F4FF0CBF012000205DF85A
:100A180008FB00BF4DF808EDFFF7EAFF34BF0120DF
:100A280000205DF808FB00BF4DF808EDFFF7E0FF78
:100A380094BF012000205DF808FB00BF4DF808EDC9
:100A4800FFF7CEFF94BF012000205DF808FB00BF30
:100A58004DF808EDFFF7C4FF34BF012000205DF812
:100A680008FB00BF4FEA410C7FEA6C5C02D150EAF8
:100A7800013C0AD14FEA430C7FEA6C5C02D152EA8E
:100A8800033C02D14FF0000070474FF0010070475F
:100A98004A0011D212F5001211D20DD56FF47873F5
:100AA800B3EB62520ED44FEAC12343F0004343EA4A
:100AB800505323FA02F070474FF00000704750EA95
:100AC800013002D14FF0FF3070474FF000007047FF
:100AD80038B50E4A0E4B054618784FF47A73B3FBB7
:100AE800F0F31068B0FBF3F000F09CF8044658B936
:100AF8000F2D09D8024629464FF0FF3000F05EF866
:100B0800044B20461D6038BD012038BD1800002068
:100B1800000000200400002008B50B4B1A6842F4BE
:100B280000721A601A6842F480621A601A6842F405
:100B380080721A60032000F02FF80020FFF7C8FF2A
:100B480001F060F8002008BD003C0240034A044B55
:100B580011681B780B441360704700BFA800002081
:100B680000000020014B1868704700BFA800002053
:100B780038B50446FFF7F6FF631C1CBF054B1B780E
:100B8800054618BFE418FFF7EDFF401B8442FAD86A
:100B980038BD00BF00000020074AD36823F4E06393
:100BA8001B041B0C43F0BF63000243F4003300F442
:100BB800E0600343D360704700ED00E0174B30B5A9
:100BC800DC68C4F30224C4F10703251D042B28BFE5
:100BD8000423062D4FF0010505FA03F303F1FF3353
:100BE8008CBF033C00241940A14005FA04F4013CE1
:100BF8002240002842EA01024FEA0212ADBF00F18A
:100C0800604000F00F00064B00F56140B5BFD2B25E
:100C1800D2B21A5480F8002330BD00BF00ED00E0C6
:100C280014ED00E00138B0F1807F0AD2064B074A84
:100C38005860F02182F823100020072298601A607B
:100C480070470120704700BF10E000E000ED00E0B1
:100C58002DE9F04F85B00B68DFF8AC81684ADFF802
:100C6800AC91019300230124019D9C402540AC4296
:100C780040F0B0804C6824F0100C0CF1FF36012EC7
:100C88004FEA430E12D88768032606FA0EF627EABB
:100C98000607CE6806FA0EF63E4386604768C4F338
:100CA800001627EA05079E403E4346600326C768AC
:100CB80006FA0EF6F64307EA060A8F6807FA0EF7F1
:100CC80047EA0A07BCF1020FC76016D14FEAD30AF8
:100CD80000EB8A0A03F0070BDAF820704FEA8B0B57
:100CE8004FF00F0C0CFA0BFC27EA0C0C0F6907FAF3
:100CF8000BF747EA0C07CAF8207007683E4004F073
:100D0800030707FA0EFE4EEA06060660E60061D5FE
:100D18004FF0000BCDF80CB0D8F84470394E47F4BA
:100D28008047C8F84470D8F8447007F480470397A0
:100D3800039F23F0030707F1804707F59C3703F06B
:100D4800030CD7F808A04FEA8C0C4FF00F0E0EFAE0
:100D58000CFEB0422AEA0E0E43D006F58066B04279
:100D680041D006F58066B0423FD006F58066B042B5
:100D78003DD006F58066B0423BD048453BD006F5ED
:100D88000066B04239D006F58066B04214BF082626
:100D9800072606FA0CF646EA0E06BE601668EF430A
:100DA80014F4803F0CBF3E402E431660566814F47E
:100DB800003F0CBF3E402E435660966814F4801FD7
:100DC8000CBF3E402E439660D668A40254BF3E40F6
:100DD8002E43D6600133102B7FF445AF05B0BDE834
:100DE800F08F5E46D5E70126D3E70226D1E7032632
:100DF800CFE70426CDE70526CBE70626C9E700BFDF
:100E0800003C01400000024000380240001402404B
:100E180001684B6913F480634FF0000210D06FF43F
:100E280080634B612023026380F83D3080F83E20C8
:100E3800036C80F83C2043F00403036401207047EE
:100E4800184670472DE9F843044617469946C1F3FA
:100E580007488EB22568B8F1010F0CBF6B69AB6902
:100E680036EA030314BF0120002008B9BDE8F8835F
:100E78006B695A0516D52B6843F400732B606FF421
:100E880080636B6120220023236384F83D2084F86B
:100E98003E30226C42F00402226484F83C30012087
:100EA800BDE8F8837B1CD5D0FFF75CFEA0EB0900FA
:100EB800874201D3002FCDD100232022236384F859
:100EC8003D2084F83E30226C42F02002E4E770B501
:100ED80004460D46164623685B695B0701D500206A
:100EE80070BD2046FFF794FFA8B96A1CF3D0FFF73E
:100EF80039FE801B854201D3002DECD1002320222E
:100F0800236384F83D2084F83E30226C84F83C301A
:100F180042F020022264012070BD2DE9F843089EAA
:100F2800044690461F46C1F307498DB22368B9F1BC
:100F3800010F0CBF5B699B6935EA03030CBF0123F2
:100F48000023434502D00020BDE8F8837B1CEDD088
:100F5800FFF708FE801B874201D3002FE6D100234C
:100F68002022236384F83D2084F83E30226C84F8E4
:100F78003C3042F0200222640120BDE8F88370B5BD
:100F880004460D46164623685B691B0601D50020FA
:100F980070BD2046FFF73CFFA8B96A1CF3D0FFF7E5
:100FA800E1FD801B854201D3002DECD100232022D6
:100FB800236384F83D2084F83E30226C84F83C306A
:100FC80042F020022264012070BD000070B5044682
:100FD80008B9012070BD90F83D3003F0FF021BB93D
:100FE80080F83C2000F02AFE242384F83D30236852
:100FF8001A6822F001021A601A6842F400421A6064
:101008001A6822F400421A6000F060F96568414BE2
:101018009D424DD8404B9842DBD922683F495368DE
:10102800B0FBF1F123F03F030B435360136A23F045
:101038003F03013119431162D169364B21F44F4105
:101048009D4221F0FF0100F1FF3048D86D00B0FB50
:10105800F5F00130C0F30B03042B38BF04230B4316
:10106800D3611168206AE36921F0C00103430B438F
:1010780013609168E068236921F40341034321F078
:10108800FF010B439360D168A069636921F0FF01F8
:1010980003430B43D360136843F00103136000203C
:1010A8002023206484F83D30206384F83E0070BD1E
:1010B8001B4B98428DD92268184E5368B0FBF6F640
:1010C80023F03F0333435360136A4FF4967171431F
:1010D80023F03F034FF47A76B1FBF6F1A9E7A36852
:1010E80053B905EB4503B0FBF3F0431CC3F30B0303
:1010F8006BB143F40043B2E719236B43B0FBF3F041
:10110800431CC3F30B0313B143F44043A7E7012384
:10111800A5E700BFA08601007F841E0040420F00A3
:10112800FF083D002DE9FF4104461F460D46904645
:10113800FFF718FD94F83D30202B064604D0022511
:10114800284604B0BDE8F0810090192301225B49CC
:101158002046FFF7E2FE0028F1D194F83C30012B3D
:10116800EDD0012384F83C3023681A68D2075EBFAB
:101178001A6842F001021A601A6822F400621A60C2
:10118800212284F83D20102284F83E200022226487
:101198006785628D22854A4AE262E26AC4F8248041
:1011A800082A04D0012A02D012F5803F04D11A6817
:1011B80042F480721A6002E0226B122AF7D00022F1
:1011C80000960A9B4FF001112046FFF7A6FE226801
:1011D80038B11368DB0544BF4FF40073236401255D
:1011E800AEE72369B3F5804F13D105F0FE0515610D
:1011F80033460A9A33492046FFF724FE054600285D
:10120800EDD1236803905A6903929B690393039B6A
:1012180044E0EB1103F0060343F0F00313612A499D
:101228000A9A33462046FFF70DFE0028D7D12368D7
:10123800EDB21D61DCE732460A992046FFF79FFEB2
:1012480040B1236C042B01BF2268136843F4007378
:101258001360C4E7636A20681A4612F8011B01612B
:101268006262628D013A92B26285228D4769511E8F
:1012780089B27F0721850AD549B1597801610233BE
:101288006362638D013B9BB2023A638522853246D5
:101298000A992046FFF71BFE0028D2D1238D002B88
:1012A800C9D121680A6842F400720A60202284F8D1
:1012B8003D2084F83C3084F83E3041E702001000BD
:1012C8000000FFFF0200010008000100044B054A6E
:1012D8009B68C3F38223D35C034A1068D8407047E5
:1012E80000380240BF2F000818000020036889B1A9
:1012F800042907D01A6A22F001021A621A6A42F017
:1013080001021A621A6A22F010021A621A6A42F07C
:10131800100206E01A6A22F001021A621A6A42F002
:1013280001021A621A6842F001021A60002070472E
:10133800304A0368904212D0B0F1804F0FD0A2F526
:101348007C4290420BD002F58062904207D002F5B1
:101358008062904203D002F57842904219D14A68DF
:1013680023F070031343234A904229D0B0F1804FF1
:1013780026D0A2F57C42904222D002F580629042AB
:101388001ED002F5806290421AD002F5784290424F
:1013980016D0194A904213D002F5806290420FD0BD
:1013A80002F5806290420BD0A2F59832904207D0A5
:1013B80002F58062904203D002F58062904203D128
:1013C800CA6823F4407313434A6923F08003134324
:1013D80003608B68C3620B688362064B984203D034
:1013E80003F58063984201D10B69036301234361CC
:1013F800704700BF0000014000400140F8B50C46AE
:101408000546002843D090F83D3003F0FF021BB991
:1014180080F83C2000F04CFC2946022351F8040BCC
:1014280085F83D30836823F4804323F00703836005
:10143800FFF77EFF2868236886688269A168076AC3
:101448001E43A36922F4407222F0030241EA0323F7
:10145800134323F47C422369E1691B0143EA012316
:10146800E1680B43216A22F0FC0243EA013313438B
:10147800616927F0AA026768866047EA01178361F5
:1014880017430123076285F83D300020F8BD01208D
:10149800F8BD000090F83C30012B30B54FF0020346
:1014A80035D080F83D3003680D685C6824F070041E
:1014B80001222C4380F83C209A685C60154CA342BA
:1014C8001AD0B3F1804F17D0A4F57C44A34213D0AF
:1014D80004F58064A3420FD004F58064A3420BD0C6
:1014E80004F57844A34207D004F57054A34203D00E
:1014F800A4F59434A34204D1496822F080020A4337
:101508009A60012380F83D30002380F83C3018466B
:1015180030BD00BF000001402DE9F04F02460D68C4
:1015280095FAA5F44FF0010CB4FA84F403264FF0B1
:101538000F0E35FA04F001D1BDE8F08F0CFA04F370
:101548002B406DD04868471E012F1ED8976893FA24
:10155800A3F8B8FA88F893FAA3F94FEA480806FA04
:1015680008F827EA0808B9FA89F98F684FEA49099B
:1015780007FA09F748EA07079760576827EA030850
:10158800CF685F4348EA07075760D76893FAA3F81C
:10159800B8FA88F893FAA3F94FEA480806FA08F85F
:1015A80027EA0808B9FA89F90F694FEA490907FAD9
:1015B80009F748EA07070228D7601DD193FAA3F76D
:1015C800B7FA87F7072FD1F814A02BDC176A93FA1C
:1015D800A3F9B9FA89F993FAA3F8B8FA88F84FEA9F
:1015E80089090EFA09F94FEA880827EA09070AFA69
:1015F80008FA47EA0A071762D2F8008093FAA3F7B5
:10160800B7FA87F793FAA3F3B3FA83F37F0006FADE
:1016180007F75B0028EA070700FA03F33B43136068
:10162800013486E7D2F824B01F0A97FAA7F8B8FA67
:1016380088F897FAA7F7B7FA87F74FEA88080EFAF3
:1016480008F8BF002BEA080B0AFA07F74BEA070766
:101658005762D1E7014B1860704700BF180000209F
:10166800054B064A5B6A10689B0883421DBF181A1F
:1016780000B213600020704700080040A40000205A
:1016880038B50E20124D00F07FF8FFF7E9FF2C68FF
:101698000444E4B2062C14D82146002000F0EBF8EC
:1016A8002C60C4F10600FEF7DDFE9FED070B41EC50
:1016B800110B00F007FC51EC100BFFF7E9F9054B93
:1016C800186038BDAFF3008000000000000024401F
:1016D800A00000200800002070B5FFF7C1FF002817
:1016E8002CD0174E174B34681B6825DD1C44164B4D
:1016F8001B689C4222D8154B1B689C421ED30021B4
:10170800084600F0B8F80A221149124D204600F0A8
:101718008FFB2860204600F059F92B68187828B903
:101728000D4B196800F0A7F8346070BD5A1C2A6088
:10173800187800F04BF8F0E7E41AD8E770BD00BF5E
:1017480014000020080000200C00002010000020D9
:10175800AC000020C0000020A0000020094A138827
:101768009BB2632B0CD90023138003F1804303F54C
:1017780001331B69DB0501D4FFF782BFFFF7ACBF5C
:10178800704700BFBC0000201FB500F0F003000147
:1017980043F00C02C0B243F008038DF80D3040F05E
:1017A8000C038DF80E3040F0080064238DF80C20EF
:1017B8008DF80F00009303AA04234E210248FFF777
:1017C800B1FC05B05DF804FB080100201FB500F06E
:1017D800F003000143F00D02C0B243F009038DF895
:1017E8000D3040F00D038DF80E3040F009006423F1
:1017F8008DF80C208DF80F00009303AA04234E21C6
:101808000248FFF78FFC05B05DF804FB08010020D3
:1018180008B53020FFF7B8FF3220FFF7A9F93020CC
:10182800FFF7B2FF0520FFF7A3F92020FFF7ACFF71
:101838000A20FFF79DF92820FFF7A6FF0220FFF7EF
:1018480097F90820FFF7A0FF0220FFF791F9012080
:10185800FFF79AFF0220FFF78BF90620FFF794FFA6
:101868000220FFF785F90E20FFF78EFF0220BDE862
:101878000840FFF77DB90F29A8BF0F210128A8BF8D
:10188800012020B1012805D0C8B2FFF77DBF41F083
:101898008001F9E741F0C001F6E700001FB56423B5
:1018A8008DF80C008DF80D10009303AA0223C021B7
:1018B8000348FFF737FC002005B05DF804FB00BFC4
:1018C8000801002007EE902AF8EE676A07EE903AC2
:1018D800B8EE677AF8B5C6EE877A06461D469FEDDC
:1018E800207A67EE877AFCEEE77A17EE904A04EBE7
:1018F800C111A1F500775C43C3F30721C4EBC214FF
:10190800FFF7CCFF701CE9B2C0B2FFF7C7FFB01CED
:10191800C7F30141C0B2FFF7C1FFF01CC7F30721AD
:10192800C0B2FFF7BBFF301DF9B2C0B22D0BFFF7F5
:10193800B5FF05F0F005C4F30341701D2943C0B29B
:10194800FFF7ACFFB01DC4F30721C0B2FFF7A6FF35
:10195800F01DE1B2C0B2BDE8F840FFF79FBF00BF7D
:101968000000004301F10071043970B50446CD014F
:1019780000211646FFF792FF601C0121C0B2FFF755
:101988008DFFC5F30141A01C3143C0B2FFF786FFAC
:10199800E01CC5F30721C0B2FFF780FF201D05F04A
:1019A8008001C0B2FFF77AFF601D0021C0B2FFF7C7
:1019B80075FFA01D0021C0B2FFF770FFE01D0021D8
:1019C800C0B2BDE87040FFF769BF000010B5184C01
:1019D800B4FBF0F4E30748BF04F1FF34154B9FED67
:1019E800167ADFED166A6043B0FBF3F103FB1103CF
:1019F80007EE903AF8EEE77A114B67EE877AC9B2AC
:101A080087EEA67A1A20FCEEC77A17EE902AFFF71F
:101A180059FF214600222A20FFF7A4FFA021B12068
:101A2800FFF73CFF4F211020BDE81040FFF736BFFD
:101A380000E9A43540787D01F0FF7F4920BCBE4B0A
:101A4800FFFF0F00054B1A6B02431A631B6B82B032
:101A580018400190019B02B0704700BF0038024057
:101A6800264A08B5136823F00F0343F005031360F3
:101A78001368A2F5E632136843F480431360204BE1
:101A88001A6842F480321A601A689103FCD55A68C1
:101A98001C4911401C4A0A435A605A6822F44032D1
:101AA8005A601A6842F080721A60154B1A689201DF
:101AB800FCD59A6822F0F0029A609A6822F4E05203
:101AC80042F4A0529A609A6822F4604242F40042BA
:101AD8009A609A6822F0030242F002029A60084A69
:101AE800936803F00C03082BFAD10848FFF7B2FDFE
:101AF8000020BDE80840FEF7EBBF00BF003C0240F5
:101B0800003802400080BFFF042A4000007A030A20
:101B180070B58CB0FFF700F8FFF7A2FF182200217C
:101B280003A800F087F98020FFF78CFF0220FFF759
:101B380089FF01200024FFF785FF4FF4807303A974
:101B48002848294D039304940794FFF7E5FC2146A0
:101B5800242203A800F06EF94023AB604FF6FF7310
:101B6800EB6003230122214E039303A9082328468F
:101B78000592079309920B93019402946C602C616F
:101B8800AC612E60FFF73AFC01A928460194029443
:101B9800FFF780FC1648174A174B846080E80C0052
:101BA8004FF48043C460036144618461C46104628A
:101BB800FFF70CFA114A124C136843F00203136042
:101BC8003C212846FFF792FB43F6FF737362FFF749
:101BD8001FFE14F8010F10B9FFF7C0FDFCE7FFF76F
:101BE800F5FDF6E700040240C800002000080040A8
:101BF8000801002000580040A086010010E000E025
:101C0800AF2F000882B00C4B002100915A6C42F4AF
:101C180080425A645A6C02F480420092009A019100
:101C28001A6C42F080521A641B6C03F080530193C3
:101C3800019B02B0704700BF0038024030B504462F
:101C480089B01422002103A800F0F4F82268154B8B
:101C58009A4224D1144C154800250195236B43F072
:101C680002032363236B03F002030193019B4FF4E8
:101C780040630393122304930123059303230693DC
:101C880003A904230793FEF7E3FF0295236C43F4AB
:101C980080032364236C03F480030293029B09B03E
:101CA80030BD00BF00580040003802400004024028
:101CB80010B5044688B01422002103A800F0BAF831
:101CC8002268134B9A4221D103F50C33002101916C
:101CD8001A6C104842F004021A641A6C02F00402EA
:101CE8000192019A02911A6B42F002021A631B6B6D
:101CF80003F002030293029BC023039301220223F1
:101D080003A9049305920793FEF7A2FF08B010BD3C
:101D180000080040000402407047FEE7FEE7FEE7C7
:101D2800FEE7704770477047034A138801339BB238
:101D38001380FEF70BBF00BFBC000020054BD3F893
:101D4800882042F47002C3F888204FF000629A603D
:101D5800704700BF00ED00E0DFF834D0002103E059
:101D68000C4B5B58435004310B480C4B42189A42B9
:101D7800F6D30B4A02E0002342F8043B094B9A428F
:101D8800F9D3FFF7DBFF00F017F8FFF7C1FE704744
:101D980000000220383000080000002084000020E5
:101DA800840000205C010020FEE70000014B186859
:101DB800704700BF1C00002070B50D4E0D4CA41BD1
:101DC800A4100025A54209D10B4E0C4C01F0E0F8F7
:101DD800A41BA4100025A54205D170BD56F82530D6
:101DE80098470135EEE756F8253098470135F2E770
:101DF8003030000830300008303000083430000837
:101E0800931E222B10B50C4604D900230B701C46D8
:101E1800204610BD0A2A09D1002807DA2D230B70A5
:101E280040420121214400F00DF8F1E70021F9E7D3
:101E3800FFF7E6BF02440346934200D1704703F818
:101E4800011BF9E7F0B51E4C8BB003460F466D46F3
:101E580004F1200E206861682E4603C608347445D4
:101E68003546F7D121793171911E206830602229D9
:101E78004FF0000104D939700F4638460BB0F0BD59
:101E8800781E0646B3FBF2F50DF1280E02FB15335A
:101E980073444C1C13F8283C06F8013F2B4665B9DF
:101EA8003D557A18CC1AA342E7DA4478157800F839
:101EB800015F013302F80149F4E72146E2E700BF78
:101EC800C72F00082DE9F04F2DED048B8DB057EC8E
:101ED800106B55EC114B00F06FF9AE4BB0EE408A29
:101EE800F0EE608A93F90090B9F1FF3F98465FD011
:101EF80022462B4620462946FEF7B4FD8346002895
:101F080056D132463B4630463946FEF7ABFD019086
:101F1800E8B10022002320462946FEF771FD00287B
:101F280046D0012302939C4B03939C4BCDF828B0D9
:101F38000022B9F1020FCDE90467CDE90645CDE9E4
:101F4800082333D002A800F008FF48BB5EE04FF03A
:101F5800000A4FF0000B52465B4630463946FEF702
:101F68004FFD4BEC19AB002855D052465B46204636
:101F78002946FEF745FD804618B301230293864B98
:101F88000393019B0A93CDE90467CDE90645CDE9A2
:101F980008ABB9F1000FD5D0804B0022CDE908235A
:101FA8000A9B1BB1FFF702FF0A9B03609DED088B9C
:101FB800B0EE480AF0EE680A0DB0BDEC048BBDE83F
:101FC800F08F45EC104B00F0C0FE0028F0D05246D0
:101FD8005B4620462946FEF71DFD0028E8D0012370
:101FE80002936D4B03936B4BCDF8288093F9003027
:101FF800CDE90467CDE9064513B9CDE908ABA1E7FA
:1020080067490020CDE90801022B9BD1FFF7CEFEDE
:1020180021230360C4E7B0EE480AF0EE680A00F036
:1020280094FE0190002840F08A8047EC106B00F085
:102038008CFE002800F0838045EC104B00F085FEF4
:1020480000287CD053EC182B18EE100A1946FEF71E
:1020580009FD98F90090504BB0B101220393019B00
:1020680002920A93CDE90467CDE90645B9F1000F5C
:10207800C3D052465B4650465946FEF783FBB9F13A
:10208800020FCDE90801C0E70322029203930A90E8
:10209800CDE90467CDE90645B9F1000F2CD1414BD4
:1020A8004FF06042CDE90823304652465B46394638
:1020B800FEF7B0FC002866D000223B4B204629469C
:1020C800FEF736FA04460D4645EC104B00F050FE7C
:1020D800204653EC102B2946FEF792FC20B9334BCF
:1020E8004FF06042CDE9082398F90030022B4AD11D
:1020F800FFF75CFE22238CE72D4B0022CDE9082355
:10210800304652465B463946FEF784FC0028EBD041
:102118000022254B20462946FEF70AFA04460D46BA
:1021280045EC104B00F024FE204653EC102B2946BA
:10213800FEF766FC0028D7D10022194BD2E700220F
:10214800002351EC180BFEF75BFC00283FF430AF7E
:1021580047EC106B00F0F9FD00283FF429AF45EC7F
:10216800104B00F0F2FD00283FF422AF0423029345
:10217800094B039300230A93CDE90467CDE906458B
:102188008DED089BB0E702A800F0E7FD00287FF47A
:1021980007AFADE780000020EC2F00080000F03FFB
:1021A8000000F0FFFFFFEF470000E03FFFFFEFC731
:1021B8000000F07F000000002DE9F04F91B08DED98
:1021C800001B9DE8040257EC106B29F0004858EA00
:1021D800020310EE10AA3D4600F0BD84784B27F0AC
:1021E80000449C4209DC03D13EB9A0450DDC01E066
:1021F800984502DC98450ED16AB104F1404404F5D3
:10220800801454EA0A0300F0A6846E4811B0BDE8B1
:10221800F04F00F0A5BD002D53DA6B4B98454DDC0F
:10222800A3F1547398454CDD4FEA2853A3F2FF33CA
:10223800142B26DDC3F1340322FA03F101FA03F368
:102248009A423ED101F00101C1F1020B002A5BD193
:102258005B4B984524D104F1404303F5801353EABE
:102268000A0300F07884594B9C422DDDB9F1000F28
:1022780080F275840020002141EC100B11B0BDE8FC
:10228800F08F002A3ED1C3F1140348FA03F101FA92
:1022980003F3984540F06B8401F00101C1F1020B92
:1022A8004B4B984518D1B9F1000F80F25C8448492E
:1022B80032463B460020FEF765FADDE74FF0020B99
:1022C800C4E74FF0000BC1E7B9F1000FD2DA9DE87F
:1022D800090003F10041CFE7B9F1804F06D132463A
:1022E8003B4610461946FEF723F9C5E7394B994591
:1022F8000AD1002D08DB47EC106B11B0BDE8F04F98
:1023080000F06CBC4FF0000B47EC106B00F016FDB2
:1023180051EC100BBAF1000F27D124B12C4B25F04A
:1023280040429A4221D1B9F1000F05DA02460B4624
:1023380000202749FEF726FA002D9DDA04F14044D3
:1023480004F5801454EA0B0308D102460B461046E4
:102358001946FDF739FF02460B46ACE7BBF1010F02
:102368008AD101F10043194686E7ED0F6B1E0D93E4
:102378005BEA030302D132463B46E8E7164B984531
:1023880040F3FE8003F1047398450ADD0F4B9C422D
:102398000DDCB9F1000FBFF66DAF07A3D3E9002339
:1023A8009FE70E4B9C42F4DD094B9C4218DDB9F1C6
:1023B800000FF2DC5EE700BF9C7500883CE4377EC6
:1023C8000000F07FBE2F0008FFFF3F43FFFFEF3FF5
:1023D8000000F03F0000E03F0000E041FEFFEF3F5B
:1023E8000022634BFDF7F0FE55A3D3E90023044612
:1023F8000D46FEF79DF854A3D3E9002306460F4681
:1024080020462946FEF794F80022CDE90201594BEF
:1024180020462946FEF78CF802460B464CA1D1E926
:102428000001FDF7D1FE22462B46FEF781F8024651
:102438000B4600205049FDF7C7FE22462B46804632
:10244800894620462946FEF773F802460B46404661
:102458004946FEF76DF840A3D3E90023FEF768F874
:1024680002460B46DDE90201FDF7AEFE02460B46C9
:1024780004460D4630463946FDF7A8FE0020CDE952
:10248800040132463B46FDF79FFE02460B462046B6
:102498002946FDF799FE0D9A0BF1FF3313430646C3
:1024A8000F4640F0EB819FED2E7BDDE900450024CF
:1024B80022462B46DDE900018DED027BFDF784FE07
:1024C800DDE90423FEF734F8DDE900238046894678
:1024D80030463946FEF72CF802460B464046494638
:1024E800FDF774FE22462B4680468946DDE9040145
:1024F800FEF71EF80B4604460D460246494640467E
:10250800CDE90045FDF762FE1C4B994206460F4691
:102518008B4640F3F78201F13F4303F5E0030343A1
:1025280000F0EA8110A3D3E90023DDE90201FDF7F9
:10253800FFFF0DA3D3E90023D5E600BFAFF300806A
:10254800000000604715F73F44DF5DF80BAE543ECE
:10255800555555555555D53FFE822B654715F73FBF
:10256800000000000000F0BF9C7500883CE4377E46
:102578000000F03F0000D03F0000E03FFFFF8F4029
:10258800B4F5801F4FF0000205DAD34BFDF7D0FFFA
:102598006FF034020C462315A3F2FF33134407935C
:1025A800CE4BC4F3130444F07F559C4245F44015C8
:1025B80008DDCB4B9C4240F35E81079B01330793B8
:1025C800A5F580154FF0000A4FEACA030C930C9A40
:1025D800C44B134493ED007B294653EC172B8DED28
:1025E8000A7BCDE90801FDF7EFFDDDE90A23064680
:1025F8000F46DDE90801FDF7E9FD02460B4600201C
:10260800B949FEF7BFF8CDE90E0102460B46304640
:102618003946FDF78DFFCDE90401DDE90434CDE944
:10262800023400230293DDE902896D1045F000555C
:1026380005F50025002205EB8A4340464946144625
:102648001D46FDF775FF02460B4630463946FDF735
:10265800BBFDDDE90A2306460F4620462946FDF75D
:10266800B3FD02460B46DDE90801FDF7ADFD424624
:102678004B46FDF75DFF02460B4630463946FDF7EF
:10268800A3FDDDE90E23FDF753FFDDE90423CDE9C2
:10269800080110461946FDF74BFF7BA3D3E9002339
:1026A80004460D46FDF744FF79A3D3E90023FDF75F
:1026B8008DFD22462B46FDF73BFF77A3D3E9002388
:1026C800FDF784FD22462B46FDF732FF74A3D3E9BC
:1026D8000023FDF77BFD22462B46FDF729FF72A359
:1026E800D3E90023FDF772FD22462B46FDF720FFB4
:1026F8006FA3D3E90023FDF769FD224606460F467E
:102708002B4620462946FDF713FF02460B46304666
:102718003946FDF70DFF424604460D464B46DDE9B6
:102728000401FDF753FDDDE90823FDF701FF22460B
:102738002B46FDF74BFD424606460F464B464046A4
:102748004946FDF7F5FE0022684BCDE90A01FDF781
:102758003DFD32463B46FDF739FD02980D460446DD
:1027680002460B4640464946FDF7E2FE00228046F7
:1027780089465E4B20462946FDF726FDDDE90A23FA
:10278800FDF722FD02460B4630463946FDF71CFD93
:10279800DDE90423FDF7CCFE224606460F462B460C
:1027A800DDE90801FDF7C4FE02460B46304639460E
:1027B800FDF70CFD06460F4602460B4640464946C5
:1027C800FDF704FD02983CA3D3E9002304460D4617
:1027D800FDF7AEFE4246CDE908014B4620462946A4
:1027E800FDF7F2FC02460B4630463946FDF7ECFC95
:1027F80033A3D3E90023FDF79BFE33A3D3E90023DA
:1028080006460F4620462946FDF792FE02460B462D
:1028180030463946FDF7DAFC0C9A354B1344D3E9B8
:102828000023FDF7D3FC044607980D46FDF71AFE72
:102838000C9A304B1344D3E9008906460F462246CA
:102848002B46DDE90801FDF7C1FC42464B46FDF782
:10285800BDFC32463B46FDF7B9FC029832463B4682
:10286800CDE90401FDF7B0FC42464B46FDF7ACFC50
:10287800DDE9082307E64FF0010AA5E69FED147B82
:1028880013E600BFAFF30080EF4E454A287ECA3FEB
:1028980065DBC9934A86CD3F01411DA96074D13FCC
:1028A8004D268F515555D53FFFAB6FDBB66DDB3FDE
:1028B800033333333333E33F000000E009C7EE3F0F
:1028C800FD033ADC09C7EE3FF5015B14E02F3EBE7D
:1028D800000000000000F03F000040438E98030015
:1028E80079B60B00F02F00080000F03F0000084008
:1028F8001030000800300008B6A3D3E90023404692
:102908004946FDF763FC2246CDE904012B463046D3
:102918003946FDF759FC02460B46DDE90401FEF78E
:1029280097F800287FF4FEADA54A2BF000439342A8
:1029380040F30C811B154FF4801AA3F2FE334AFAB8
:1029480003F35B44C3F30A529E4EA2F2FF321641D0
:10295800C3F3130A002023EA0601C2F114024AF461
:10296800801A4AFA02FABBF1000F02460B462046CB
:102978002946B8BFCAF1000AFDF726FCCDE90001D7
:1029880042464B46DDE90001FDF720FC00207AA312
:10299800D3E9002304460D46FDF7CAFDDDE900230F
:1029A80006460F4620462946FDF70EFC02460B4612
:1029B80040464946FDF708FC71A3D3E90023FDF71B
:1029C800B7FD71A3D3E900238046894620462946EE
:1029D800FDF7AEFD02460B4640464946FDF7F6FBBD
:1029E80004460D4602460B4630463946FDF7EEFBD7
:1029F80032463B4680468946FDF7E6FB02460B46D3
:102A080020462946FDF7E0FB424606460F464B4660
:102A180040464946FDF78CFD5DA3D3E900230446F3
:102A28000D46FDF785FD5CA3D3E90023FDF7CCFB3C
:102A380022462B46FDF77CFD59A3D3E90023FDF779
:102A4800C5FB22462B46FDF773FD57A3D3E90023A8
:102A5800FDF7BAFB22462B46FDF76AFD54A3D3E9DE
:102A68000023FDF7B3FB22462B46FDF761FD024626
:102A78000B4640464946FDF7A7FB04460D4602466D
:102A88000B4640464946FDF753FD0022CDE90001BB
:102A98004FF0804320462946FDF796FB02460B4639
:102AA800DDE90001FDF76EFE324604460D463B4661
:102AB80040464946FDF73CFD32463B46FDF786FB5E
:102AC80002460B4620462946FDF77EFB42464B460A
:102AD800FDF77AFB02460B4600203B49FDF774FBE5
:102AE80001EB0A54B4F5801F02460B4631DA504612
:102AF80043EC102B00F0C4F951EC100BDDE9022374
:102B0800FFF7F1BB314B21F000469E427FF70CAF37
:102B18002F4B0B4403430BD027A3D3E90023DDE954
:102B28000201FDF705FD24A3D3E90023FFF7DBBB72
:102B380022462B46FDF748FB02460B4640464946CF
:102B4800FDF772FF00283FF4EFAEE5E74FF0000A0B
:102B580016E72146D2E700201B49FFF78DBBDDE9C8
:102B68000001FFF789BB30463946FFF785BB93461E
:102B7800FFF796BBAFF3008000000000432EE63F4E
:102B8800EF39FAFE422EE63F396CA80C615C20BE94
:102B9800D0A4BE726937663EF16BD2C541BDBB3E5B
:102BA8002CDE25AF6A56113F93BDBE166CC1663F39
:102BB8003E5555555555C53F59F3F8C21F6EA501E9
:102BC8000000E03FFFFF0F000000F03FFFCB904008
:102BD80000346F3FFE822B654715973C2DE9F04185
:102BE80055EC104B544EAE4310EE100A2B462A46B5
:102BF800214613D110EE102A2B4610EE100A294652
:102C0800FDF796FC02460B4620462946FDF7DEFAFC
:102C180004460D4645EC104BBDE8F081002D10DC54
:102C280025F000463043F5D05DB110EE102A2B4652
:102C380020462946FDF7C8FA02460B46FDF7A2FDD5
:102C4800E6E71B150CD1002A6DD00020D6026ED500
:102C5800441E1B1BC0F1200421FA04F422438140C6
:102C6800A3F2FF33C2F31302DD0742F4801242BF1E
:102C7800520002EBD17249005810002502EBD173C3
:102C88001A44490016232C464FF40016A7199742F8
:102C9800DEBFD21BBC19AD195200013B02EBD17249
:102CA8004FEA56064FEA4101F0D14FF0200E9C46FC
:102CB8004FF00046A24206EB0C0702DC12D18F420D
:102CC80010D8002F07EB060C34DABCF1000F31DB0B
:102CD80004F10108121B8F4288BF02F1FF32C91BA1
:102CE8003344444602EBD177BEF1010E3A444FEA31
:102CF80041014FEA5606DDD10A4306D05C1C13BFDA
:102D080001330135734623F001036A105B08E907B4
:102D180002F17F5202F5001248BF43F0004302EB74
:102D280000551C4676E7CA0A153B49058BE7520051
:102D380001308BE7A046CDE70000F07F53EC102B65
:102D480023F0004343EC102B704710EE903A43F009
:102D5800004000F58010C00F704700207047000049
:102D68009FED010B704700BF000000000000F87FD6
:102D7800F7B551EC100BC1F30A54A4F2FF36132E29
:102D880010EE107A0B4602464FEAD17558DC002E39
:102D98002BDA21F00042024323D0C1F3130202438D
:102DA80051421143090B5B0C01F400215B0441EA19
:102DB8000307314B03EBC5033946D3E9006710EE2F
:102DC800100A32463B46FDF701FACDE900013B46C1
:102DD8003246DDE90001FDF7F7F921F0004343EA47
:102DE800C57141EC100B03B0F0BD244C344101EA2D
:102DF80004070743F5D0610803EA010002430BD03A
:102E080023EA01014FF48023132E43FA06F30CBF83
:102E18004FF0004200220B431946174B03EBC50540
:102E2800D5E9004510462B462246FDF7CFF9CDE9F6
:102E3800000122462B46DDE90001FDF7C5F9D0E780
:102E4800332E08DDB6F5806FCBD110EE102A0B4675
:102E5800FDF7BCF9C5E7A4F213464FF0FF34F44080
:102E68002042BED061080F421FBF4FF0804227EAC0
:102E7800010132410A43CFE720300008FFFF0F006D
:102E880070B555EC104BC5F30A5206462B46B2B93D
:102E980025F0004323433CD00022334B294610EE53
:102EA800100AFDF745FB314A964204460D460B468B
:102EB80013DA29A3D3E90023FDF73AFB0AE040F22D
:102EC800FF718A420CD110EE102A2B462046294663
:102ED800FDF77CF904460D461BE0C1F30A52363A69
:102EE800324440F2FE718A420BDD45EC114B9FEDF6
:102EF8001C0B00F03FF81AA3D3E9002351EC100B88
:102F0800DAE7002A08DD23F0FF4323F4E00343EA6D
:102F1800025545EC104B70BD12F1350F0DDA4CF22D
:102F280050339E4245EC114BE1DC9FED0B0B00F05A
:102F380021F809A3D3E90023E0E723F0FF43363261
:102F480023F4E00343EA0255204629460022084BB1
:102F5800B2E700BFAFF3008059F3F8C21F6EA501B6
:102F68009C7500883CE4377E00005043B03CFFFF6E
:102F78000000903C53EC102B11EE900A23F0004116
:102F880000F0004041EA000343EC102B70470000BA
:102F9800F8B500BFF8BC08BC9E467047F8B500BF3E
:082FA800F8BC08BC9E4670470E
:102FB0002020202020202020202020202020000051
:102FC0000000000102030430313233343536373823
:102FD000396162636465666768696A6B6C6D6E6FA0
:102FE000707172737475767778797A00706F770084
:102FF000000000000000F03F000000000000F83F6B
:1030000000000000000000000000004003B8E23FA4
:10301000000000000000000006D0CF43EBFD4C3E56
:10302000000000000000304300000000000030C33A
:04303000AD010008E6
:043034008901000806
:10303800010000001000000001000000A0636F0004
:10304800C0CF6A00B0196D000024F40020000020F1
:103058000000000000000000000000000000000068
:103068000000000000000000000000000000000058
:103078000000000000000000000000000000000048
:103088000000000000000000000000000000000038
:103098000000000000000000000000000000000028
:1030A8000000000000000000000000000000000018
:0430B8000100000013
:0400000508001D6171
:00000001FF
